:020000040800F2
:10000000000002205D280008AD280008AD28000887
:10001000AD280008AD280008AD2800080000000049
:10002000000000000000000000000000AD280008F3
:10003000AD28000800000000AD280008BD2300081E
:10004000AD280008AD280008AD280008AD2800083C
:10005000AD280008AD280008AD280008AD2800082C
:10006000AD280008AD280008AD280008AD2800081C
:10007000AD280008AD280008AD280008AD2800080C
:10008000AD280008AD280008AD280008AD280008FC
:10009000AD280008AD280008AD280008AD280008EC
:1000A000AD280008AD280008AD280008AD280008DC
:1000B000C9230008AD280008AD280008AD280008B5
:1000C000AD280008AD280008AD280008AD280008BC
:1000D000AD280008AD280008AD280008AD280008AC
:1000E000AD280008AD280008AD280008AD2800089C
:1000F000AD280008AD280008AD280008AD2800088C
:10010000AD280008AD280008AD280008AD2800087B
:10011000AD280008AD280008D9230008AD28000844
:10012000AD280008AD280008AD280008AD2800085B
:10013000AD2800080000000000000000AD28000805
:10014000AD280008AD280008AD280008AD2800083B
:10015000AD280008AD280008AD280008AD2800082B
:10016000AD280008AD280008AD280008AD2800081B
:10017000AD280008AD280008AD28000800000000E8
:1001800000000000AD280008000000000000000092
:10019000AD2800080000000000000000AD280008A5
:1001A000000000000000000000000000AD28000872
:1001B000AD280008AD280008AD280008AD280008CB
:0401C000AD2800085E
:1001D00010B5054C237833B9044B13B10448AFF381
:1001E00000800123237010BDE0010020000000000A
:1001F0009849000808B5034B1BB103490348AFF306
:10020000008008BD00000000E401002098490008BB
:1002100081F0004102E000BF83F0004330B54FEAB7
:1002200041044FEA430594EA050F08BF90EA020F24
:100230001FBF54EA000C55EA020C7FEA645C7FEAB7
:10024000655C00F0E2804FEA5454D4EB5555B8BFDA
:100250006D420CDD2C4480EA020281EA030382EA4B
:10026000000083EA010180EA020281EA0303362DDD
:1002700088BF30BD11F0004F4FEA01314FF4801CB0
:100280004CEA113102D0404261EB410113F0004FC2
:100290004FEA03334CEA133302D0524263EB430379
:1002A00094EA050F00F0A780A4F10104D5F1200E17
:1002B0000DDB02FA0EFC22FA05F2801841F1000172
:1002C00003FA0EF2801843FA05F359410EE0A5F146
:1002D00020050EF1200E012A03FA0EFC28BF4CF077
:1002E000020C43FA05F3C01851EBE37101F000452D
:1002F00007D54FF0000EDCF1000C7EEB00006EEB3A
:100300000101B1F5801F1BD3B1F5001F0CD34908C3
:100310005FEA30004FEA3C0C04F101044FEA44521A
:1003200012F5800F80F09A80BCF1004F08BF5FEAA1
:10033000500C50F1000041EB045141EA050130BD81
:100340005FEA4C0C404141EB010111F4801FA4F124
:100350000104E9D191F0000F04BF01460020B1FA79
:1003600081F308BF2033A3F10B03B3F120020CDAB1
:100370000C3208DD02F1140CC2F10C0201FA0CF08F
:1003800021FA02F10CE002F11402D8BFC2F1200CF4
:1003900001FA02F120FA0CFCDCBF41EA0C019040AA
:1003A000E41AA2BF01EB0451294330BD6FEA0404F3
:1003B0001F3C1CDA0C340EDC04F11404C4F12002DE
:1003C00020FA04F001FA02F340EA030021FA04F3F0
:1003D00045EA030130BDC4F10C04C4F1200220FA47
:1003E00002F001FA04F340EA0300294630BD21FA85
:1003F00004F0294630BD94F0000F83F4801306BF4B
:1004000081F480110134013D4EE77FEA645C18BF3E
:100410007FEA655C29D094EA050F08BF90EA020FD5
:1004200005D054EA000C04BF1946104630BD91EACD
:10043000030F1EBF0021002030BD5FEA545C05D1D0
:100440004000494128BF41F0004130BD14F580040F
:100450003CBF01F5801130BD01F0004545F0FE4183
:1004600041F470014FF0000030BD7FEA645C1ABFB8
:10047000194610467FEA655C1CBF0B46024650EAEF
:10048000013406BF52EA033591EA030F41F400211B
:1004900030BD00BF90F0000F04BF0021704730B5A1
:1004A0004FF4806404F132044FF000054FF0000176
:1004B00050E700BF90F0000F04BF0021704730B537
:1004C0004FF4806404F1320410F0004548BF40420C
:1004D0004FF000013EE700BF42004FEAE2014FEA61
:1004E00031014FEA02701FBF12F07F4393F07F4F3C
:1004F00081F06051704732F07F4208BF704793F03F
:100500007F4F04BF41F40021704730B54FF4607451
:1005100001F0004521F000411CE700BF50EA010254
:1005200008BF704730B54FF000050AE050EA0102FD
:1005300008BF704730B511F0004502D5404261EB6D
:1005400041014FF4806404F132045FEA915C3FF4AE
:10055000D8AE4FF003025FEADC0C18BF03325FEA4B
:10056000DC0C18BF033202EBDC02C2F1200300FAFC
:1005700003FC20FA02F001FA03FE40EA0E0021FA21
:1005800002F11444BDE600BF70B54FF0FF0C4CF40F
:10059000E06C1CEA11541DBF1CEA135594EA0C0FC1
:1005A00095EA0C0F00F0DEF82C4481EA030621EAFC
:1005B0004C5123EA4C5350EA013518BF52EA033537
:1005C00041F4801143F4801338D0A0FB02CE4FF0E9
:1005D0000005E1FB02E506F00042E0FB03E54FF019
:1005E0000006E1FB03569CF0000F18BF4EF0010E11
:1005F000A4F1FF04B6F5007F64F5407404D25FEA0D
:100600004E0E6D4146EB060642EAC62141EA5551BF
:100610004FEAC52040EA5E504FEACE2EB4F1FD0C01
:1006200088BFBCF5E06F1ED8BEF1004F08BF5FEA7F
:10063000500E50F1000041EB045170BD06F0004631
:1006400046EA010140EA020081EA0301B4EB5C04DE
:10065000C2BFD4EB0C0541EA045170BD41F48011D6
:100660004FF0000E013C00F3AB8014F1360FDEBFFB
:10067000002001F0004170BDC4F10004203C35DAD7
:100680000C341BDC04F11404C4F1200500FA05F35A
:1006900020FA04F001FA05F240EA020001F00042FB
:1006A00021F0004110EBD37021FA04F642EB060171
:1006B0005EEA430E08BF20EAD37070BDC4F10C049B
:1006C000C4F1200500FA04F320FA05F001FA04F25F
:1006D00040EA020001F0004110EBD37041F100014B
:1006E0005EEA430E08BF20EAD37070BDC4F1200556
:1006F00000FA05F24EEA020E20FA04F301FA05F2BE
:1007000043EA020321FA04F001F0004121FA04F265
:1007100020EA020000EBD3705EEA430E08BF20EA35
:10072000D37070BD94F0000F0FD101F0004640006F
:1007300041EB010111F4801F08BF013CF7D041EAF1
:10074000060195F0000F18BF704703F000465200F5
:1007500043EB030313F4801F08BF013DF7D043EAC6
:100760000603704794EA0C0F0CEA135518BF95EA7C
:100770000C0F0CD050EA410618BF52EA4306D1D103
:1007800081EA030101F000414FF0000070BD50EA22
:10079000410606BF1046194652EA430619D094EAAC
:1007A0000C0F02D150EA013613D195EA0C0F05D196
:1007B00052EA03361CBF104619460AD181EA0301EA
:1007C00001F0004141F0FE4141F470014FF00000A2
:1007D00070BD41F0FE4141F4780170BD70B54FF03D
:1007E000FF0C4CF4E06C1CEA11541DBF1CEA1355BD
:1007F00094EA0C0F95EA0C0F00F0A7F8A4EB05049F
:1008000081EA030E52EA03354FEA013100F0888095
:100810004FEA03334FF0805545EA131343EA12635E
:100820004FEA022245EA111545EA10654FEA002613
:100830000EF000419D4208BF964244F1FD0404F5CC
:10084000407402D25B084FEA3202B61A65EB030528
:100850005B084FEA32024FF480104FF4002CB6EBE5
:10086000020E75EB030E22BFB61A754640EA0C0065
:100870005B084FEA3202B6EB020E75EB030E22BFA5
:10088000B61A754640EA5C005B084FEA3202B6EBE6
:10089000020E75EB030E22BFB61A754640EA9C00A5
:1008A0005B084FEA3202B6EB020E75EB030E22BF75
:1008B000B61A754640EADC0055EA060E18D04FEA33
:1008C000051545EA16754FEA06164FEAC30343EAD3
:1008D00052734FEAC2025FEA1C1CC0D111F4801FA0
:1008E0000BD141EA00014FF000004FF0004CB6E799
:1008F00011F4801F04BF01430020B4F1FD0C88BF38
:10090000BCF5E06F3FF6AFAEB5EB030C04BFB6EB42
:10091000020C5FEA500C50F1000041EB045170BD35
:100920000EF0004E4EEA113114EB5C04C2BFD4EB62
:100930000C0541EA045170BD41F480114FF0000EE6
:10094000013C90E645EA060E8DE60CEA135594EA62
:100950000C0F08BF95EA0C0F3FF43BAF94EA0C0F65
:100960000AD150EA01347FF434AF95EA0C0F7FF4DA
:1009700025AF104619462CE795EA0C0F06D152EA2E
:1009800003353FF4FDAE1046194622E750EA410612
:1009900018BF52EA43067FF4C5AE50EA41047FF423
:1009A0000DAF52EA43057FF4EBAE12E753B94AB9F3
:1009B000002908BF00281CBF4FF0FF314FF0FF3067
:1009C00000F072B9ADF1080C6DE904CE00F006F844
:1009D000DDF804E0DDE9022304B070472DE9F047BB
:1009E000089E04468846002B4BD18A42154667D99B
:1009F000B2FA82F24AB1C2F1200701FA02F320FAF8
:100A000007F7954047EA030894404FEA154E230C38
:100A1000B8FBFEF71FFA85FC0EFB178843EA084374
:100A200007FB0CF1994209D9EB1807F1FF3080F070
:100A30001B81994240F21881023F2B445B1AA4B2F9
:100A4000B3FBFEF00EFB103344EA034400FB0CFC46
:100A5000A44509D92C1900F1FF3380F00781A44582
:100A600040F2048102382C4440EA0740A4EB0C0415
:100A700000271EB1D4400023C6E900433946BDE833
:100A8000F0878B4209D9002E00F0EB800027C6E9E1
:100A9000000138463946BDE8F087B3FA83F7002FE6
:100AA00047D18B4202D3824200F2FA80841A61EB72
:100AB000030301209846002EE0D0C6E90048DDE798
:100AC00002B9FFDEB2FA82F2002A40F08F80491BA1
:100AD0004FEA154E1FFA85F80127B1FBFEFC230CE7
:100AE0000EFB1C1143EA014308FB0CF1994207D9A4
:100AF000EB180CF1FF3002D2994200F2CD8084460F
:100B0000591AA3B2B1FBFEF00EFB101443EA0444E1
:100B100008FB00F8A04507D92C1900F1FF3302D2D9
:100B2000A04500F2B6801846A4EB080440EA0C4049
:100B30009FE7C7F1200CBB4022FA0CFE4EEA030EE1
:100B400001FA07F420FA0CF521FA0CF34FEA1E48DB
:100B50002543B3FBF8F92C0C08FB19331FFA8EFA66
:100B600044EA034309FB0AF49C4202FA07F200FA42
:100B700007F10BD91EEB030309F1FF3080F08780EA
:100B80009C4240F28480A9F1020973441B1BADB260
:100B9000B3FBF8F008FB103345EA034400FB0AFA04
:100BA000A24508D91EEB040400F1FF336BD2A24525
:100BB00069D90238744440EA0940A0FB0289A4EBD9
:100BC0000A044C45C2464B4654D351D0002E69D03E
:100BD000B1EB0A0564EB030404FA0CFCFD40FC4095
:100BE0004CEA0505C6E90054002747E7C2F1200397
:100BF00020FA03F7954001FA02F021FA03F34FEAD5
:100C0000154E3843010CB3FBFEF71FFA85F80EFBB7
:100C1000173341EA034107FB08F38B4204FA02F45D
:100C200007D9691807F1FF3C2FD28B422DD9023F1B
:100C30002944CB1A81B2B3FBFEF00EFB103341EA1C
:100C4000034100FB08F38B4207D9691800F1FF3C10
:100C500017D28B4215D902382944C91A40EA0747EE
:100C60003BE73746304609E70746E7E61846FBE626
:100C70004145ABD2B8EB020A69EB0E0201381346CC
:100C8000A4E76046E9E7184695E76746D1E781465D
:100C90007CE702382C4447E7ACF1020C2B442FE7E9
:100CA000384608E73746E9E6704700BF034613F8C1
:100CB000012B002AFBD1181A0138704700000000F0
:100CC00001F0FF01102A2BDB10F0070F08D010F8FD
:100CD000013B013A8B422DD010F0070F42B3F6D101
:100CE000F0B441EA012141EA014122F007047FF01A
:100CF00000070023F0E80256083C85EA010586EA71
:100D0000010685FA47F5A3FA87F586FA47F6A5FAAC
:100D100087F68EB9EED1F0BC01F0FF0102F00702B8
:100D200032B110F8013B013A83EA010313B1F8D163
:100D30000020704701387047002D06BF3546033844
:100D4000073815F0010F07D1013015F4807F02BF7D
:100D5000013015F4C03F0130F0BC0138704700BFCE
:100D60004FF0FF3C06E000BF4FF0010C02E000BF77
:100D70004FF0010C4DF804CD4FEA410C7FEA6C5C5A
:100D80004FEA430C18BF7FEA6C5C1BD001B050EAFD
:100D9000410C0CBF52EA430C91EA030F02BF90EAE8
:100DA000020F0020704710F1000F91EA030F58BFA7
:100DB000994208BF90422CBFD8176FEAE37040F009
:100DC000010070474FEA410C7FEA6C5C02D150EAA7
:100DD000013C07D14FEA430C7FEA6C5CD6D152EA62
:100DE000033CD3D05DF8040B704700BF8446104627
:100DF00062468C461946634600E000BF01B5FFF726
:100E0000B7FF002848BF10F1000F01BD4DF808EDF5
:100E1000FFF7F4FF0CBF012000205DF808FB00BFC6
:100E20004DF808EDFFF7EAFF34BF012000205DF820
:100E300008FB00BF4DF808EDFFF7E0FF94BF01206D
:100E400000205DF808FB00BF4DF808EDFFF7CEFF6E
:100E500094BF012000205DF808FB00BF4DF808EDAD
:100E6000FFF7C4FF34BF012000205DF808FB00BF7E
:100E70004FEA410C7FEA6C5C02D150EA013C0AD196
:100E80004FEA430C7FEA6C5C02D152EA033C02D188
:100E90004FF0000070474FF0010070474FEA4102E9
:100EA00012F5001215D211D56FF47873B3EB6252BC
:100EB00012D94FEAC12343F0004343EA505311F0E3
:100EC000004F23FA02F018BF404270474FF0000075
:100ED000704750EA013005D111F0004008BF6FF0B3
:100EE000004070474FF00000704700BF10B5044647
:100EF0000E4B18784FF47A73B3FBF0F30C4A10687A
:100F0000B0FBF3F000F094F868B90F2C01D9012080
:100F10000AE0002221464FF0FF3000F049F8034B71
:100F20005C60002000E0012010BD00BF0000002038
:100F30000C00002008B50B4B1A6842F400721A60CE
:100F40001A6842F480621A601A6842F480721A6069
:100F5000032000F01BF80020FFF7C8FF01F0B6FBEC
:100F6000002008BD003C0240034A1168034B1B7877
:100F70000B441360704700BF1402002000000020E3
:100F8000014B1868704700BF14020020074AD3685D
:100F900023F4E0631B041B0C000200F4E060184320
:100FA00040F0BF6040F40030D060704700ED00E0DA
:100FB00030B4174BDB68C3F30223C3F10704042CDE
:100FC00028BF04241D1D062D18D9033B4FF0FF3503
:100FD00005FA04F421EA0401994005FA03F322EA30
:100FE0000303194300280BDB0901C9B200F160407B
:100FF00000F5614080F8001330BC70470023E5E73E
:1010000000F00F000901C9B2024B1954F4E700BF08
:1010100000ED00E014ED00E000F01F0240090123A4
:101020009340024A42F82030704700BF00E100E0E0
:101030000138B0F1807F0AD2064B5860064AF02191
:1010400082F823100020986007221A607047012060
:10105000704700BF10E000E000ED00E0042805D07C
:10106000054A136823F0040313607047024A1368AB
:1010700043F004031360704710E000E0704708B5C8
:10108000FFF7FCFF08BD000000230F2B00F2D1800A
:10109000F0B482B039E0062200E00022B2403A43C8
:1010A0000234644E46F82420634A1468EA4302EA94
:1010B00004064F6817F4803F01D045EA04065E4CF1
:1010C0002660646802EA04064F6817F4003F01D006
:1010D00045EA0406584C6660A46802EA04064F68B4
:1010E00017F4801F01D045EA0406534CA660E4685B
:1010F00022404E6816F4001F01D045EA04024E4C0F
:10110000E26001330F2B00F2918001229A400C68BB
:1011100004EA0205AA42F4D14C68022C01D0122C38
:1011200010D1DE08083650F826C003F00704A700E7
:101130000F24BC402CEA040C0C69BC4044EA0C04AB
:1011400040F8264004685F000326BE40F64306EAE6
:10115000040C4C6804F00304BC4044EA0C04046032
:101160004C6804F1FF3CBCF1010F03D9112C01D0F4
:10117000122C10D1846806EA040CCC68BC4044EA06
:101180000C048460446824EA02024C68C4F300142E
:101190009C4014434460C26816408A68BA40324397
:1011A000C2604A6812F0805FABD000220192234AED
:1011B000546C44F480445464526C02F480420192B2
:1011C000019A9C08A61C1B4A52F8267003F00302E1
:1011D00096000F22B24027EA0207194A90423FF4D4
:1011E0005CAF02F58062904216D002F580629042B8
:1011F00014D002F58062904212D002F580629042D3
:1012000010D002F5806290420ED002F580629042CA
:101210003FF441AF072241E701223FE702223DE7C9
:1012200003223BE7042239E7052237E702B0F0BC8E
:101230007047704700380140003C014000380240D0
:1012400000000240436959404161704770B588B061
:101250000C46164608B300230293204D2A6B42F039
:1012600004022A632A6B02F004020292029A4FF4EB
:1012700000720392022204920322069205930793BE
:1012800003A91748FFF700FFAB6823F0784344EA4F
:10129000C6041C43AC6008B070BD002301930F4D21
:1012A0002A6B42F001022A632A6B02F001020192CA
:1012B000019A4FF480720392022204920322069252
:1012C0000593079303A90748FFF7DEFEAB6823F0F9
:1012D000EC6334431C43AC60DDE700BF00380240E0
:1012E0000008024000000240002800F09D8070B518
:1012F00004464F4B1B6803F00F038B4209D2CBB25D
:101300004B4A1370136803F00F038B4201D0012086
:1013100070BD236813F0020F17D013F0040F04D030
:10132000444A936843F4E0539360236813F0080F32
:1013300004D0404A936843F4604393603D4A936805
:1013400023F0F003A068034393600D46236813F075
:10135000010F32D06368012B21D09A1E012A25D9B2
:10136000344A126812F0020F60D032498A6822F0C3
:10137000030213438B60FFF703FE06462D4B9B6869
:1013800003F00C036268B3EB820F16D0FFF7F8FD91
:10139000801B41F288339842F0D90320B8E7254AF0
:1013A000126812F4003FE0D10120B1E7214A12682F
:1013B00012F0007FD9D10120AAE71D4B1B6803F072
:1013C0000F03AB4209D9EAB2194B1A701B6803F03C
:1013D0000F03AB4201D001209AE7236813F0040FFA
:1013E00006D0144A936823F4E053E1680B439360FA
:1013F000236813F0080F07D00E4A936823F4604364
:10140000216943EAC103936000F040F8094B9B68EF
:10141000C3F30313084AD35CD840084B186000207C
:10142000FFF764FD002073E70120704701206FE79C
:10143000003C024000380240B04900080C00002087
:10144000014B1868704700BF0C00002008B5FFF77B
:10145000F7FF044B9B68C3F38223034AD35CD84055
:1014600008BD00BF00380240C049000808B5FFF7BA
:10147000E7FF044B9B68C3F34233034AD35CD84075
:1014800008BD00BF00380240C04900082DE9F04BFC
:101490005C4B9B6803F00C03082B07D00C2B5BD034
:1014A000042B00F0AD805848BDE8F08B554B5A68CE
:1014B00002F03F025B6813F4800F2AD0514B5B6847
:1014C000C3F388131E4600275C010025E41A65EB70
:1014D0000705A90141EA9461A001001B61EB050128
:1014E000CB0043EA5073C400A01943EB07014B0241
:1014F00043EAD0534402204619460023FFF756FA28
:10150000404B5B68C3F3014301335B00B0FBF3F076
:10151000CAE73C4B5B68C3F388131E4600275C0197
:101520000025E41A65EB0705A90141EA9461A001D1
:10153000001B61EB0501CB0043EA5073C400A01906
:1015400043EB07018B0243EA90538402204619467D
:101550000023FFF72BFAD3E72A4B5A6802F03F0229
:101560005B6813F4800F28D0264B5B68C3F38813A5
:101570001E4600275C010025E41A65EB0705A9015A
:1015800041EA9461A001001B61EB0501CB0043EA35
:101590005073C400A01943EB07014B0243EAD05338
:1015A0004402204619460023FFF700FA154B5B68FA
:1015B000C3F30273B0FBF3F076E7124B5B68C3F33F
:1015C00088131E4600275C010025E41A65EB070519
:1015D000A90141EA9461A001001B61EB0501CB0068
:1015E00043EA5073C400A01943EB07018B0243EA9E
:1015F00090538402204619460023FFF7D7F9D5E718
:10160000024851E7003802400024F40000127A003A
:1016100070B582B00446036813F0010F41D0A64BA9
:101620009B6803F00C03042B32D0A34B9B6803F0A0
:101630000C03082B27D0A04B9B6803F00C030C2B4A
:1016400059D06368B3F5803F5BD0B3F5A02F5ED06F
:10165000994B1A6822F480321A601A6822F48022A8
:101660001A606368002B5CD0FFF78AFC0546924B3A
:101670001B6813F4003F14D1FFF782FC401B642861
:10168000F5D903209DE18C4B5B6813F4800FD2D019
:10169000894B1B6813F4003F03D06368002B00F0F4
:1016A0008D81236813F0020F67D0834B9B6813F082
:1016B0000C0F4AD0804B9B6803F00C03082B3FD0E3
:1016C0007D4B9B6803F00C030C2B48D0E368002B88
:1016D00074D07A4B01221A60FFF752FC0546764B14
:1016E0001B6813F0020F60D1FFF74AFC401B022871
:1016F000F5D9032065E1704B5B6813F4800FA0D02F
:10170000C6E76D4A136843F480331360A9E76A4B58
:101710001A6842F480221A601A6842F480321A6011
:101720009FE7FFF72DFC0546634B1B6813F4003F52
:10173000B7D0FFF725FC401B6428F5D9032040E112
:101740005D4B5B6813F4800FBAD15B4B1B6813F0E1
:10175000020F0AD0E368012B07D0012031E1564B7C
:101760005B6813F4800FB1D1EFE7534A136823F09D
:10177000F803216943EAC1031360236813F0080FDB
:1017800040D0636963B34E4B01221A60FFF7F8FB48
:101790000546494B5B6F13F0020F33D1FFF7F0FBA7
:1017A000401B0228F5D903200BE1434A136823F0BC
:1017B000F803216943EAC1031360DEE73F4B0022CF
:1017C0001A60FFF7DDFB05463B4B1B6813F0020F69
:1017D000D3D0FFF7D5FB401B0228F5D90320F0E05A
:1017E000374B00221A60FFF7CBFB0546324B5B6F8D
:1017F00013F0020F06D0FFF7C3FB401B0228F5D9F8
:101800000320DEE0236813F0040F79D02A4B1B6C11
:1018100013F0805F33D100230193274B1A6C42F001
:1018200080521A641B6C03F080530193019B0125C5
:10183000244B1B6813F4807F23D0A368012B34D082
:10184000052B41D01C4B1A6F22F001021A671A6F48
:1018500022F004021A67A368002B3FD0FFF790FB29
:101860000646154B1B6F13F0020F48D1FFF788FB9C
:10187000801B41F288339842F3D90320A1E0002570
:10188000D6E7104A136843F480731360FFF778FBC0
:1018900006460C4B1B6813F4807FCED1FFF770FB1C
:1018A000801B0228F5D903208BE0034A136F43F015
:1018B00001031367CFE700BF003802400000474232
:1018C000800E474200700040404B1A6F42F0040205
:1018D0001A671A6F42F001021A67BCE7FFF750FB64
:1018E00006463A4B1B6F13F0020F08D0FFF748FB78
:1018F000801B41F288339842F3D9032061E0E5B9B7
:10190000A369002B5CD0314A926802F00C02082ACD
:1019100059D0022B17D02E4B00221A60FFF730FB54
:1019200004462A4B1B6813F0007F45D0FFF728FBC5
:10193000001B0228F5D9032043E0244A136C23F04E
:1019400080531364DCE7224B00221A60FFF718FB78
:1019500005461E4B1B6813F0007F06D0FFF710FBF7
:10196000401B0228F5D903202BE0E369226A1343C8
:10197000626A43EA8213A26A5208013A43EA0243C6
:10198000E26A43EA0263226B43EA02730F4A53603E
:101990000F4B01221A60FFF7F3FA04460B4B1B684A
:1019A00013F0007F06D1FFF7EBFA001B0228F5D9F0
:1019B000032006E0002004E0002002E0012000E017
:1019C000002002B070BD0120FBE700BF00380240DC
:1019D0006000474230B4046A24F010040462846951
:1019E000056A24F4407444EA022222F470421B0384
:1019F0009BB21A4325F0A005090101F0A00129437B
:101A00008261016230BC704730B4046A24F480748F
:101A10000462C469056A24F00304224322F0F00240
:101A20001B01DBB21A4325F42065090201F4206191
:101A30002943C261016230BC704730B4046A24F4A7
:101A400080540462C469056A24F4407444EA0222A2
:101A500022F470421B039BB21A4325F4204509036C
:101A600001F420412943C261016230BC7047026821
:101A7000D36843F00103D3600268136843F00103A5
:101A8000136000207047704770477047704710B56B
:101A9000044603681A6912F0020F11D0DA6812F0D6
:101AA000020F0DD06FF002021A6101230376036862
:101AB0009B6913F0030F70D000F0C2FC0023237663
:101AC00023681A6912F0040F12D0DA6812F0040FBA
:101AD0000ED06FF004021A610223237623689B69FB
:101AE00013F4407F5FD0204600F0AAFC0023237649
:101AF00023681A6912F0080F12D0DA6812F0080F82
:101B00000ED06FF008021A61042323762368DB6984
:101B100013F0030F4ED0204600F092FC00232376F2
:101B200023681A6912F0100F12D0DA6812F0100F41
:101B30000ED06FF010021A61082323762368DB6948
:101B400013F4407F3DD0204600F07AFC002323763A
:101B500023681A6912F0010F03D0DA6812F0010F3E
:101B600036D123681A6912F0800F03D0DA6812F0B8
:101B7000800F34D123681A6912F0400F03D0DA685D
:101B800012F0400F32D123681A6912F0200F03D0EF
:101B9000DA6812F0200F30D110BDFFF775FF204634
:101BA000FFF773FF8AE72046FFF76EFF2046FFF737
:101BB0006CFF9BE72046FFF767FF2046FFF765FFB6
:101BC000ACE72046FFF760FF2046FFF75EFFBDE76A
:101BD0006FF001021A612046FFF755FFC1E76FF071
:101BE00080021A61204600F07EF9C3E76FF04002E0
:101BF0001A612046FFF74AFFC5E76FF020021A611D
:101C0000204600F06FF9C7E703682E4A904212D0D1
:101C1000B0F1804F0FD0A2F57C4290420BD002F57C
:101C20008062904207D002F58062904203D002F5B4
:101C30007842904203D123F070034A681343214A4B
:101C400090422AD0B0F1804F27D0A2F57C4290423A
:101C500023D002F5806290421FD002F5806290424C
:101C60001BD002F57842904217D002F57052904294
:101C700013D002F5806290420FD002F5806290424C
:101C80000BD0A2F59832904207D002F580629042C4
:101C900003D002F58062904203D123F44073CA68F6
:101CA000134303608B68C3620B688362054B9842E1
:101CB00003D003F58063984201D10B6903630123CC
:101CC0004361704700000140A8B110B5044690F888
:101CD00039305BB1022384F83930211D2068FFF7C9
:101CE00093FF012384F83930002010BD80F838308C
:101CF00000F03AFDEEE701207047A8B110B50446A8
:101D000090F839305BB1022384F83930211D206806
:101D1000FFF77AFF012384F83930002010BD80F8E6
:101D2000383000F0F1FCEEE70120704770B4046A2F
:101D300024F0010404628469056A1A4EB0421FD07F
:101D4000B0F1804F1CD0A6F57C46B04218D006F505
:101D50008066B04214D006F58066B04210D006F519
:101D60007846B0420CD006F57056B04208D0A6F5C1
:101D70009436B04204D024F0030242F0010202E0A3
:101D800024F00304224322F0F0021B01DBB21343D0
:101D900025F00A0201F00A0111438361016270BC5F
:101DA000704700BF0000014038B590F83830012B73
:101DB00058D00D460446012380F83830022380F8BD
:101DC0003930DAB1042A2AD0082A3AD0CB684A68D6
:101DD00009680068FFF731FE2268D36923F4406385
:101DE000D3612268D369A96843EA0123D36101233F
:101DF00084F83930002084F8380038BDCB684A6850
:101E000009680068FFF792FF2268936923F00C03CA
:101E1000936122689369A9680B439361E7E7CB68F4
:101E20004A6809680068FFF7D5FD2268936923F4C2
:101E30004063936122689369A96843EA012393612F
:101E4000D5E7CB684A6809680068FFF7DDFD2268BE
:101E5000D36923F00C03D3612268D369A9680B43CB
:101E6000D361C4E70220C8E710B4012303FA01F4E8
:101E7000036A23EA04030362036A8A40134303628A
:101E80005DF8044B704710B504460C290DD8DFE807
:101E900001F0070C0C0C170C0C0C1D0C0C0C230087
:101EA0000268D36843F00203D36001222068FFF781
:101EB000DBFF2268136843F001031360002010BDAC
:101EC0000268D36843F00403D360EEE70268D36886
:101ED00043F00803D360E8E70268D36843F01003D7
:101EE000D360E2E7704770472DE9F8430446016884
:101EF0000A6922F44052C36813430B610168CA683F
:101F000022F4164222F00C028368006903436069E0
:101F10000343E06903431343CB6021684A6922F419
:101F20004072A36913434B61E369B3F5004F60D07E
:101F30002368B84A934200F0148102F5806293420C
:101F400000F00F81FFF782FA00EB800000EB8000C9
:101F50006568AD00B0FBF5F5AF4FA7FB05356D0922
:101F60002E01FFF773FA00EB800000EB800065683C
:101F7000AD00B0FBF5F9FFF769FA00EB800000EB6C
:101F800080006568AD00B0FBF5F5A7FB05356D0970
:101F90004FF0640808FB15952D013235A7FB053578
:101FA0006D0905F0F0053544FFF750FA00EB8000AD
:101FB00000EB80006668B600B0FBF6F6FFF746FA65
:101FC00000EB800000EB800063689B00B0FBF3F047
:101FD000A7FB0030400908FB10684FEA081808F119
:101FE0003208A7FB0837C7F3431723682F449F60C5
:101FF0000DE12368874A93425BD002F580629342E9
:1020000057D0FFF723FA00EB800000EB80006568F3
:102010006D00B0FBF5F5804FA7FB05356D092E016E
:10202000FFF714FA00EB800000EB800065686D009C
:10203000B0FBF5F9FFF70AFA00EB800000EB800037
:1020400065686D00B0FBF5F5A7FB05356D094FF030
:10205000640808FB1595ED003235A7FB05356D09C1
:102060006D0005F4F8753544FFF7F0F900EB8000DA
:1020700000EB800066687600B0FBF6F6FFF7E6F945
:1020800000EB800000EB800063685B00B0FBF3F3C3
:10209000A7FB03235B0908FB13684FEAC80808F194
:1020A0003208A7FB0837C7F3421723682F449F6005
:1020B000ADE0FFF7DBF900EB800000EB8000656826
:1020C0006D00B0FBF5F5544FA7FB05356D092E01EA
:1020D000FFF7CCF900EB800000EB800065686D0035
:1020E000B0FBF5F9FFF7C2F900EB800000EB8000D0
:1020F00065686D00B0FBF5F5A7FB05356D094FF080
:10210000640808FB1595ED003235A7FB05356D0910
:102110006D0005F4F8753544FFF7A8F900EB800071
:1021200000EB800066687600B0FBF6F6FFF79EF9DC
:1021300000EB800000EB800063685B00B0FBF3F312
:10214000A7FB03235B0908FB13684FEAC80808F1E3
:102150003208A7FB0837C7F3421723682F449F6054
:1021600055E0FFF783F900EB800000EB8000656825
:10217000AD00B0FBF5F5284FA7FB05356D092E0125
:10218000FFF774F900EB800000EB80006568AD009C
:10219000B0FBF5F9FFF76AF900EB800000EB800077
:1021A0006568AD00B0FBF5F5A7FB05356D094FF08F
:1021B000640808FB15952D013235A7FB05356D091F
:1021C00005F0F0053544FFF751F900EB800000EB16
:1021D00080006668B600B0FBF6F6FFF747F900EB43
:1021E000800000EB800063689B00B0FBF3F0A7FB6E
:1021F0000030400908FB10684FEA081808F132085F
:10220000A7FB0837C7F3431723682F449F60BDE837
:10221000F88300BF001001401F85EB512DE9F0410C
:1022200005460F4616469846069C2B681B6837EAFB
:1022300003030CBF01230023B3421DD1B4F1FF3FC0
:10224000F3D02CB1FEF79CFEA0EB0800A042ECD925
:102250002A68D36823F4D073D3602A68536923F0C3
:1022600001035361202385F8393085F83A30002383
:1022700085F83830032000E00020BDE8F08158B335
:1022800010B5044690F839300BB3242384F8393064
:102290002268D36823F40053D3602046FFF724FE5E
:1022A0002268136923F4904313612268536923F071
:1022B0002A0353612268D36843F40053D36000209B
:1022C000E063202384F8393084F83A3010BD80F878
:1022D000383000F063FAD8E7012070472DE9F0416B
:1022E00082B01E4690F83930DBB2202B55D104461F
:1022F0000D469046002955D0002A55D090F8383028
:10230000012B53D0012380F838300023C3632123ED
:1023100080F83930FEF734FE0746A4F82480A4F88C
:10232000268010E000963B46002280212046FFF7E1
:1023300075FF00283CD12B882268C3F30803536043
:102340002369C3B90235E38C9BB2B3B1E38C013B83
:102350009BB2E384A368B3F5805FE3D000963B466D
:10236000002280212046FFF759FF18BB2A782368F6
:102370005A600135E7E70135E5E700963B46002264
:1023800040212046FFF74AFF0346A8B9202284F8DF
:102390003920002284F8382000E00223184602B0D9
:1023A000BDE8F0810123F9E70123F7E70223F5E710
:1023B0000323F3E70323F1E70323EFE708B5FEF771
:1023C000D3FDFEF75CFE08BD08B50248FFF75FFBD2
:1023D00008BD00BF5402002008B520210348FEF7C5
:1023E00031FF0348FFF753FB08BD00BF0000024068
:1023F0001802002000B587B0002100910A4B1A6B2B
:1024000042F001021A631B6B03F001030093009B6F
:102410002023019301230293039101A90348FEF7AE
:1024200033FE07B05DF804FB0038024000000240B4
:1024300008B54FF0C06200210846FEF707FF08BD4F
:102440000D4B1B782BB90D4B1B78012B02D0022BA7
:1024500008D070470268516B074A51600133074A40
:102460001370704703685A6B034B9A60012203494B
:102470000A701A70EDE700BFFC0100200800002080
:10248000FEE7000010B592B0072305934FF48033A8
:10249000069301230793089302230B934FF48003C1
:1024A0000C93542833D0782843D032282DD10423DC
:1024B0000D9332230E9302230F93109311930F2247
:1024C00000920193002302934FF4805203920493ED
:1024D000012405A8FFF79CF800283FD12146684653
:1024E000FEF702FF00283BD1FEF7AAFF1D4BA3FB1E
:1024F00000308009FEF79CFD0420FEF7AFFD0022AE
:1025000011464FF0FF30FEF753FD12B010BD04230B
:102510000D9354230E9302240F94109411940F23BF
:1025200000930194002302934FF48052039204938A
:10253000CFE704230D9378230E9302230F93109378
:1025400011930F2200920193002302934FF4A053A2
:1025500003934FF4805304930324BAE7FFF790FFEB
:10256000FFF78EFFD34D621008B50648064B036097
:10257000092343603123C360FFF7A6FB00B908BD00
:10258000FFF77EFF180200200010004008B5094840
:10259000094B03604FF4E133436000238360C36061
:1025A000036183610C234361FFF769FE00B908BD35
:1025B000FFF766FF900200200044004000B585B0A0
:1025C0000F484FF080430360002383604FF0FF33D8
:1025D000C36001234360FFF790FB68B900220392B8
:1025E000009202920123019369460548FFF7DCFB44
:1025F00020B905B05DF804FBFFF742FFFFF740FF8D
:1026000054020020D0B59AB0FEF794FC3220FFF7B8
:1026100039FFFFF7EFFEFFF7B9FFFFF7A5FFFFF761
:10262000CDFFFFF705FF2348FFF721FA00212248DD
:10263000FFF729FC33E01B1B5C1EFEF707FF400081
:102640001D4B5B680133B0FBF3F0FDF723FF02463F
:102650000B4600201949FEF7C1F806460F462046F2
:10266000FDF718FF32463B46FDF78EFF02460B464C
:1026700000201249FEF7B2F802460B46104901A8A5
:1026800000F09EFD01A8FEF711FB4FF0FF3382B270
:1026900001A90C48FFF722FE0B4B00221A700A4BCF
:1026A0001B78002BFBD0084A93685468A342C2D918
:1026B0001C1BC2E718020020540200200000F03F5B
:1026C000C849000890020020FC01002008B5032042
:1026D000FEF75CFC0B4A536A43F4E023536200228A
:1026E00011466FF00B00FEF763FC002211466FF0FD
:1026F0000A00FEF75DFC002211466FF00900FEF7AC
:1027000057FC08BD00ED00E010B588B0002401942E
:10271000134B1A6C42F001021A641A6C02F00102A7
:102720000192019A02941A6B42F001021A631B6B28
:1027300003F001030293029B0123039302220492FC
:10274000079303A90748FEF79FFC22460F211C2090
:10275000FEF72EFC1C20FEF75FFC08B010BD00BF8A
:10276000003802400000024010B582B000240194FD
:10277000094B1A6C42F010021A641B6C03F0100330
:102780000193019B3620FEF747FC22460F2136209D
:10279000FEF70EFC02B010BD0038024030B589B023
:1027A00000240194184B1A6C42F400321A641A6C1B
:1027B00002F400320192019A02941A6B42F0010273
:1027C0001A631B6B03F001030293029B0423039320
:1027D00002230493012305930694072307930B4DCB
:1027E00003A92846FEF750FC0823039303A92846B3
:1027F000FEF74AFC2620FEF70FFC22460F2126207A
:10280000FEF7D6FB09B030BD0038024000000240A0
:102810000F49D1F8883043F47003C1F888300D4B6C
:102820001A6842F001021A60002098601A6822F0CB
:10283000847222F480321A60074A5A601A6822F4BD
:1028400080221A60D8604FF000638B60704700BF31
:1028500000ED00E00038024010300024DFF834D0F2
:10286000002103E00C4B5B58435004310B480C4BE8
:1028700042189A42F6D30B4A02E0002342F8043B86
:10288000094B9A42F9D3FFF7C3FF00F011F8FFF7A5
:10289000B9FE704700000220604C000800000020D4
:1028A000E0010020E0010020D4020020FEE700004B
:1028B00070B50D4E0D4CA41BA4100025A54209D1E6
:1028C0000B4E0C4C02F068F8A41BA4100025A54286
:1028D00005D170BD56F8253098470135EEE756F81A
:1028E000253098470135F2E7584C0008584C00084D
:1028F000584C00085C4C000802440346934200D147
:10290000704703F8011BF9E72DE9FF4755EC104B21
:102910000D9FDDF830A0002D0E4691461946B8BF38
:1029200022462B4627F02007BBBF05F100431D467A
:1029300000232D23B8BF1446462F0B7004D0452F1B
:1029400000D10136022100E0032103AB019302AB69
:1029500000933246534645EC104B00F0DDFC472F08
:10296000804602D119F0010F26D0462F08EB060948
:1029700011D198F80030302B0AD1002200232046D4
:102980002946FEF743FA18B9C6F10106CAF80060F5
:10299000DAF8003099440022002320462946FEF749
:1029A00035FA38B93022039B4B4505D2591C0391A7
:1029B0001A70F8E7CDF80C90039B0E9AA3EB08036E
:1029C0004046136004B0BDE8F087F7B5002904461F
:1029D000BABF49422D232B23092904F8022B437047
:1029E00020DD0DF107031F460A2691FBF6F506FBD5
:1029F00015113031092D03F8011C03F1FF3229466E
:102A000009DC3031023B02F8011CBB42224604D3F0
:102A1000101A03B0F0BD1346E7E713F8012B04F8D2
:102A2000012BF2E7302319448370021DC170EFE7D8
:102A30002DE9F04F8DB00C46DDF8588016461F4644
:102A4000054601F021FA036804931846FEF72EF9B3
:102A500000230A93D8F800300590073323F00703CA
:102A600003F1080294F818A0D4F800B0C8F80020C8
:102A7000D3E90023C4E91223D4E9128929F00043E1
:102A80000793CDF818804FF0FF32A74BDDE9060120
:102A9000FEF7EEF970BB4FF0FF32A34BDDE9060104
:102AA000FEF7C8F930BB0022002340464946FEF736
:102AB000B7F910B12D2384F843309C4A9C4BBAF1EE
:102AC000470F8CBF9046984603232BF004022361E6
:102AD00022604FF00009009733460BAA2146284692
:102AE00000F0E6F9013040F08D804FF0FF300DB07E
:102AF000BDE8F08F42464B4640464946FEF7B8F9DE
:102B000010B18C4A8C4BDAE761684B1C4BF4806245
:102B10000AA83ED1062363600023CDE9020309AB76
:102B2000009349EC108B0DF123032260CDF804A033
:102B300061682846FFF7E8FE0AF0DF03472B80466E
:102B400009D1099BD81C02DB6268934247DDAAF1D8
:102B5000020A5FFA8AFABAF1650F099924D8013995
:102B6000524604F150000991FFF72FFF0A9A1318FB
:102B7000012A8146236102DC2268D10701D5013395
:102B800023619DF82330002BA5D02D2384F84330FA
:102B9000A1E7BAF1670F00F07781BAF1470FBBD117
:102BA0000029B9D10123B6E7BAF1660F19D100297E
:102BB00063680CDD216113B92268D20702D50133A5
:102BC0000B442361099BA3654FF00009D9E713B9B2
:102BD0002268D00701D50233F3E70123F1E74FF074
:102BE000670ADDE90932934205DB22682361D107D8
:102BF000E8D50133E5E7002BD4BFC3F1020301237D
:102C00001344DEE723685A0507D423694246314658
:102C10002846B84701302BD167E7BAF1650F40F27B
:102C2000DC8000220023D4E91201FEF7EFF800282F
:102C300033D00123414A31462846B84701303FF49A
:102C400054AFDDE909239A4202DB2368D8070FD588
:102C5000DDE9042331462846B84701303FF445AF4B
:102C60004FF0000804F11A090A9B013B434509DCB7
:102C700023689B0700F10381E0680B9B9842B8BF73
:102C8000184634E701234A4631462846B847013002
:102C90003FF42BAF08F10108E6E7099B002B2BDC82
:102CA0000123264A31462846B84701303FF41DAF7C
:102CB000099B23B90A9B13B92368D907D8D5DDE945
:102CC000042331462846B84701303FF40EAF4FF099
:102CD000000904F11A0A099B5B424B4501DC0A9B7F
:102CE00094E70123524631462846B84701303FF465
:102CF000FCAE09F10109EEE70A9AA36D9A42A8BF5A
:102D00001A46002A914607DD1346314642462846B8
:102D1000B84701303FF4E9AE04F11A034FF0000B5D
:102D200029EAE979069315E0FFFFEF7FF8490008EB
:102D3000F4490008004A0008FC490008044A000859
:102D40000123069A31462846B84701303FF4CDAEFC
:102D50000BF1010BD4F858A0AAEB09035B45EFDC9B
:102D6000DDE909239A42D04415DB2368DA0712D43F
:102D70000A9B0999A3EB0A02A3EB010A9245A8BF9B
:102D80009246BAF1000F0EDC4FF000082AEAEA7A08
:102D900004F11A0919E0DDE9042331462846B84751
:102DA0000130E5D1A1E65346424631462846B847B0
:102DB0000130E9D199E601234A4631462846B84711
:102DC00001303FF492AE08F10108DDE909239B1AB6
:102DD000A3EB0A034345EEDC4AE70A9A012A01DC29
:102DE000DB073AD50123424631462846B847013031
:102DF0003FF47BAEDDE9042331462846B847013075
:102E000008F101083FF471AE0A9B002203F1FF3A7A
:102E1000D4E912010023FDF7F9FFC8B95346424631
:102E200031462846B84701300ED15EE601235246AE
:102E300031462846B84701303FF457AE08F1010843
:102E40000A9B013B4345F1DC4B4604F15002DEE6B0
:102E50004FF0000804F11A0AF2E70123DFE701232B
:102E60004A4631462846B84701303FF43EAE08F1A5
:102E70000108E3680B9A9B1A4345F0DCFCE64FF02F
:102E8000000804F11909F4E700293FF48BAE002390
:102E9000CDE9020309AB009349EC108B2260CDF819
:102EA00004A00DF123032846FFF72EFD804648E6D7
:102EB0002DE9F04791461F468A680B69DDF82080AE
:102EC0009342B8BF1346C9F8003091F84320064634
:102ED0000C4612B10133C9F800302368990642BF8D
:102EE000D9F800300233C9F80030256815F006051E
:102EF00007D104F1190AE368D9F800209B1AAB4204
:102F000028DC94F843302268003318BF012392066E
:102F10002DD404F1430239463046C047013020D059
:102F20002368E568D9F8002003F00603042B08BFE6
:102F3000AD1AA36822690CBF25EAE5750025934206
:102F4000C4BF9B1AED184FF000091A344D451AD131
:102F5000002008E00123524639463046C047013080
:102F600003D14FF0FF30BDE8F0870135C3E7E1182A
:102F70005A1C302081F84300224494F8451082F80E
:102F800043100233C5E70123224639463046C04785
:102F90000130E6D009F10109D8E700002DE9F0433E
:102FA00001F1430C0C46097E85B06E291746064692
:102FB00098460C9A00F0B38022D8632936D00AD8FC
:102FC000002900F0B980582900F0838004F14205FF
:102FD00084F8421032E0642901D06929F6D12068D2
:102FE0001368050603F104012AD51B681160002B44
:102FF00003DA2D225B4284F843206F480A2239E02D
:10300000732900F09D8008D86F2920D07029DDD168
:10301000236843F02003236003E0752917D0782943
:10302000D4D1782384F84530644855E01368191DDD
:103030001B68116004F1420584F8423001238CE0E2
:103040001B68116010F0400F18BF1BB2CFE7136868
:103050002568181D1060280601D51B6802E0680667
:10306000FBD51B8854486F2914BF0A22082200216F
:1030700084F843106568A560002DC0F29580216832
:1030800021F004012160002B3DD1002D40F08E8005
:103090006546082A0BD12368DB0708D523696268D7
:1030A0009A42DEBF302305F8013C05F1FF35ACEB59
:1030B00005032361CDF800803B4603AA2146304634
:1030C000FFF7F6FE01304DD14FF0FF3005B0BDE8FF
:1030D000F083394884F84510136821681D1D1B686A
:1030E00015600A060BD5CA0744BF41F020012160D4
:1030F0001BB9226822F0200222601022B7E74D0699
:1031000048BF9BB2EFE76546B3FBF2F102FB113318
:10311000C35C05F8013D0B460029F5D1B9E71368FA
:1031200025686169181D106028061B6801D51960A3
:1031300002E06A06FBD51980002323616546B9E7E2
:103140001368191D11601D68626800212846FDF78B
:10315000B7FD08B1401B606063682361002384F8F9
:103160004330A7E723692A4639463046C047013035
:10317000AAD023689B0713D4E068039B9842B8BF8A
:103180001846A3E701234A4639463046C047013076
:103190009AD00135E368039A9B1AAB42F2DCEBE765
:1031A000002504F11909F5E7002BACD1037884F868
:1031B000423004F142056CE7064A0008174A00084D
:1031C0000EB400B59CB01DAB029006906FF00041AC
:1031D000094807910491094953F8042B05910068A7
:1031E000019302A901F05CFA029B00221A701CB044
:1031F0005DF804EB03B07047100000200802FFFFE9
:103200002DE9F74F03690C69A3428046C0F2828022
:10321000013C01F114074FEA840C00F1140657F841
:10322000245056F8240006EB0C03013507EB0C097B
:103230000193B0FBF5F595B34FF0000A3846B6465A
:10324000D34650F8042B93B205FB03A34FEA134A6D
:103250009BB2ABEB0303120CDEF800B005FB02A23D
:1032600013FA8BF34FEA124A1FFA82FBDEF80020B2
:10327000CBEB124202EB23429BB243EA024381456D
:103280004FEA224B4EF8043BDBD256F80C3033B9F0
:10329000019B043B9E421A4630D3C8F8104040467A
:1032A00001F028F8002825DB013530464FF0000CEE
:1032B00057F8042BD0F800E093B2ACEB0303120CE8
:1032C00013FA8EF3C2EB1E4202EB23429BB243EA97
:1032D0000243B9454FEA224C40F8043BE8D256F885
:1032E000242006EB84032AB9043B9E421A460BD3E2
:1032F000C8F81040284603B0BDE8F08F1268043BC0
:10330000002ACAD1013CC5E71268043B002AEFD16C
:10331000013CEAE70020EEE72DE9F04F57EC106B97
:1033200097B0456A069104460B921293DDF88080AF
:10333000CDE900673DB9102000F0B4FD6062C0E93E
:1033400001550560C560636A196851B15A684A60E1
:10335000012393408B60204600F0EBFD636A00225E
:103360001A603B1EBBBF23F00043019300230122E0
:10337000ACBFC8F80030C8F80020AF4BDDF80480BF
:1033800033EA080314D1129A42F20F731360009BC0
:1033900023B9C8F31300002800F04285219BDFF811
:1033A000ACB2002B00F044850BF1030300F03EBDEE
:1033B000DDE900670022002330463946FDF726FD8F
:1033C000814668B1129A01231360219B002B00F003
:1033D00024859A4B219A03F1FF3B136000F028BD2E
:1033E00014AA15A947EC106B204600F0FAFFC8F3A9
:1033F0000A550490002D7CD0C7F3130343F07F5B84
:10340000B2464BF4401BA5F2FF35CDF84C9000229C
:103410008B4B50465946FCF7FFFE81A3D3E90023AE
:10342000FDF7B2F880A3D3E90023FCF7F7FE0646C8
:1034300028460F46FDF73EF87DA3D3E90023FDF7AC
:10344000A3F802460B4630463946FCF7E7FE06462F
:103450000F46FDF723FD0022824600233046394601
:10346000FDF7DEFC48B15046FDF724F832463B46F6
:10347000FDF7CCFC08B90AF1FF3ABAF1160F59D89A
:10348000704901EBCA01DDE90023D1E90001FDF734
:10349000E5FC002850D00AF1FF3A00230F93149B5B
:1034A0005D1BB5F1010849BFC5F101030023059378
:1034B0004FF0000858BF0593BAF1000F3EDB002320
:1034C000D044CDF838A00793069B092B00F29080DA
:1034D000052BC4BF043B0693069BA3F10203CCBF9C
:1034E00000250125032B00F28F80DFE803F07D7FAC
:1034F0003171DDE914531D4405F23240202813DDFB
:10350000C0F14000009B08FA00F805F2124023FACF
:1035100000F048EA0000FCF7BDFF01238246A1F15C
:10352000F87B013D139372E7009BC0F1200003FA82
:1035300000F0F0E70123B1E70F90B0E7059BA3EBA4
:103540000A030593CAF10003079300230E93BBE718
:1035500001230A930B9B002B59DD02939946666A5F
:1035600000227260042202F114009842716853D95B
:10357000204600F0AAFC636A3060B9F10E0FD3F860
:1035800000B000F2E680002D00F0E3809DED007BAE
:10359000BAF1000F8DED107B74DD2A4A0AF00F039B
:1035A00002EBC30393ED007B4FEA2A16F0068DED84
:1035B000087B65D5244BDDE91001D3E90823FDF72D
:1035C0000DF9CDE9000106F00F0603251E4F4CE072
:1035D00001230A930B9B534403F1010902934B46C9
:1035E000012BB8BF0123BAE70023B2E70023F0E7BD
:1035F0000125002306930A954FF0FF330293994665
:10360000002212230B92AAE701230A93F4E7012375
:10361000029399461A46F5E7013171605200A2E71C
:1036200061436F63A787D23FB3C8608B288AC63FC8
:10363000FB799F501344D33F0000F07F054A0008F8
:103640000000F83F604A0008384A0008314A000884
:10365000F10708D5DDE90801D7E90023FCF794FF5D
:10366000CDE90801013576100837002EF0D1DDE9EB
:103670000823DDE90001FDF7B1F8CDE900011AE00A
:103680000225A3E700F0A080CAF100069F4BA04FDF
:1036900006F00F0203EBC203D3E90023DDE91001BA
:1036A000FCF772FFCDE90001361100230225002E40
:1036B0007FD1002BE1D10F9B002B00F08780DDE94B
:1036C00000670022934B30463946FDF7A9FB0028DE
:1036D0007CD0B9F1000F79D0029B002B35DD0AF1C7
:1036E000FF330893394600228B4B3046FCF74CFFE2
:1036F000CDE90001029F01352846FCF7DBFEDDE93C
:103700000023FCF741FF0022844BFCF787FD0546B0
:10371000A1F15076002F5DD10022814BDDE900013F
:10372000FCF77AFD2A463346CDE90001FDF796FB0A
:10373000002840F088822A4606F10043DDE90001B6
:10374000FDF76EFB002840F07C82DDE91023CDE917
:103750000023159B002BC0F25081BAF10E0F00F32D
:103760004C816A4B03EBCA0393ED007B0B9B002B50
:103770008DED027B80F2D880B9F1000F00F3D48088
:1037800040F05E820022664B51EC170BFCF7FCFE0A
:10379000DDE90023FDF758FB4F464E46002840F078
:1037A000348231230BF101058BF800300AF1010A54
:1037B0002FE2F20705D5D7E90023FCF7E5FE013536
:1037C00001237610083772E7022574E7CDF820A0B0
:1037D0004F4691E74D4B03EBC70353E902010A9BA8
:1037E000002B47D002460B4600204E49FCF7F6FF5F
:1037F0002A463346FCF710FDCDE90C015D46DDE9B4
:103800000001FDF74BFB0646FCF754FE02460B4653
:10381000DDE90001FCF700FD303605F8016BDDE95C
:103820000C23CDE90001FDF7FBFA002863D1DDE9A7
:10383000002300203749FCF7EFFCDDE90C23FDF7FE
:10384000EFFA002840F0B780A5EB0B039F427FF70B
:103850007CAF0022304BDDE90C01FCF795FE002225
:10386000CDE90C012C4BDDE90001FCF78DFECDE923
:103870000001C4E72A463346FCF786FECDE90C0179
:103880000BEB07055E46DDE90001FDF707FB074688
:10389000FCF710FE303702460B46DDE90001FCF76D
:1038A000BBFC06F8017BAE42CDE900014FF00002FF
:1038B00026D11C4BDDE90C01FCF7B0FC02460B469F
:1038C000DDE90001FDF7CAFA002874D1DDE90C2317
:1038D00000201449FCF7A0FC02460B46DDE900017C
:1038E000FDF79EFA00283FF430AF15F8013C302B6D
:1038F00005F1FF3202D0DDF820A04AE01546F4E7DA
:10390000054BFCF741FECDE90001BCE7604A000829
:10391000384A00080000F03F0000244000001C402E
:10392000000014400000E03FDDE900675D46DDE98E
:10393000022330463946FCF751FFFDF7AFFA8046C7
:10394000FCF7B8FDDDE90223FCF71EFE02460B463C
:103950003046394608F13006FCF75EFC05F8016B8D
:10396000A5EB0B06B14502460B4639D1FCF756FCD8
:10397000DDE9022306460F46FDF770FAC8B9DDE916
:10398000022330463946FDF741FA10B118F0010F15
:103990000FD10499204600F0CCFA0023129A2B7024
:1039A0000AF101031360219B002B00F041821D608E
:1039B0003EE2CDF820A015F8012C392A05F1FF339D
:1039C00008D19B450AD1089B0133089330238BF81B
:1039D00000305B461A7801321A708CE71D46EAE720
:1039E00000229B4BFCF7D0FD0022002306460F4629
:1039F000FDF70CFA00289AD0CBE70A9A002A00F0CB
:103A00008B80069A012A6EDC139A002A67D003F293
:103A10003343079F059D059A01211A4420460592CC
:103A2000984400F026FB0646002D0CDDB8F1000F8F
:103A300009DD4545059A2B46A8BF4346D21A059293
:103A4000ED1AA8EB0308079BEBB10A9B002B67D08C
:103A50008FB131463A46204600F0AAFB049A01464F
:103A60000646204600F00EFB04990890204600F020
:103A700060FA089B0493079BDA1B04D00499204644
:103A800000F096FB04900121204600F0F2FA0E9B14
:103A90000746002B00F0D0811A460146204600F070
:103AA00087FB069B012B074640DC009B002B39D18E
:103AB000019BC3F31303002B36D1019B23F000437A
:103AC0001B0D1B052BB1059B0133059308F1010864
:103AD000012307930E9B002B2AD1012030E0149B79
:103AE000C3F1360395E7079B09F1FF37BB42BFBF20
:103AF000079B0797FA1A0E9BBBBF9B180E93DF1B01
:103B00000027B9F1000FB5BF059B059DA3EB090583
:103B10004B46B8BF00237EE7079F059D0A9E83E7BB
:103B2000079AABE70023D4E7009BD2E70023079373
:103B30003B6907EB8303186900F04DFAC0F12000E0
:103B4000404410F01F0047D0C0F12003042B3BDDA0
:103B5000059BC0F11C000344059305448044059B6C
:103B6000002B05DD1A460499204600F06FFB0490F7
:103B7000B8F1000F05DD39464246204600F066FBED
:103B800007460F9B53B33946049800F0B3FB002857
:103B900024DA00230A220499204600F0E1F90A9B66
:103BA00004900AF1FF3A002B00F04D8100233146CA
:103BB0000A22204600F0D4F9029B002B06464FDC77
:103BC000069B022B4CDD11E0C9D0059A1C331A4428
:103BD00005921D449844C2E70346F6E7B9F1000F89
:103BE00038DC069B022B35DDCDF80890029B63B9CB
:103BF00039460522204600F0B3F9014607460498ED
:103C000000F078FB00283FF7CCAD0B9B5D466FEAD8
:103C1000030A4FF000093946204600F08AF9002EC9
:103C20003FF4B7AEB9F1000F05D0B14503D0494616
:103C3000204600F07EF93146204600F07AF9A8E6E9
:103C400000273E46E1E7DDF820A03E46A9E500BF9B
:103C5000000024400A9BCDF80890002B00F0FA8069
:103C6000002D05DD31462A46204600F0EFFA0646D3
:103C7000079B002B4CD07168204600F026F9326972
:103C800002320546920006F10C010C3000F012F9E8
:103C900001222946204600F0D9FA009BCDF814B045
:103CA00003F00103B1460793064639460498FFF72F
:103CB000A7FA4946054600F13008049800F01AFBBF
:103CC000324600903946204600F02EFBC36802467B
:103CD00003BB01460890049800F00CFB089A0346C9
:103CE00011462046089300F024F9089BA3B9069AD0
:103CF00092B9079A82B9B8F1390F29D0009B002BED
:103D000001DD05F13108059B5D1C83F8008082E729
:103D10003046C2E70123E3E7009A002A04DB25D1FD
:103D2000069A1ABB079A0ABB002BECDD0122049904
:103D3000204600F08BFA3946049000F0DBFA0028A8
:103D400003DCE0D118F0010FDDD0B8F1390FD8D184
:103D5000059B059A5D1C3923137015F8013C392B1E
:103D600005F1FF324FD00133137054E7059A002B51
:103D700002F1010506DDB8F1390FE9D008F10108BB
:103D8000059BC2E7029A05F8018CA5EB0B03934251
:103D900021D000230A220499204600F0E1F8B14521
:103DA00004904FF000034FF00A024946204605D127
:103DB00000F0D6F881460646059576E700F0D0F883
:103DC0003146814600230A22204600F0C9F8064603
:103DD000F2E74FF0000901220499204600F036FA7C
:103DE0003946049000F086FA0028B6DC02D118F0BB
:103DF000010FB2D115F8013C302B05F1FF327FF4F1
:103E00000AAF1546F6E7934505D131230AF1010AB9
:103E10008BF80030FFE615469FE7DFF864B007E057
:103E2000219BDFF860B01BB10BF10803219A1360EE
:103E3000584617B0BDE8F08F069B012B7FF735AED3
:103E40000E9B079349E6029B002B03DC069B022B8B
:103E50003FF7CCAE5D4639460498FFF7D1F900F143
:103E6000300805F8018B029AA5EB0B039A42B0DDEE
:103E700000230A220499204600F072F80490EAE731
:103E8000044A0008284A0008044B1B68186A044BBF
:103E9000002808BF1846F030704700BF100000200F
:103EA00074000020024B0146186800F045BB00BFBB
:103EB0001000002010B5431E0A44914200D110BDED
:103EC00011F8014B03F8014FF7E770B5456A044656
:103ED0000E463DB91020FFF7E5FF6062C0E90155CD
:103EE0000560C560656AEB6883B1636ADB6853F897
:103EF0002600B8B9012101FA06F56A1D9200204694
:103F000000F0BEFA60B1C0E901650EE02122042193
:103F1000204600F0B5FA636AE860DB68002BE4D164
:103F2000002070BD026843F826200023C0E9033357
:103F3000F7E770B5446A06460D463CB91020FFF716
:103F4000B1FF7062C0E901440460C4603DB1736AAE
:103F50006A68DB6853F82210296043F8225070BD6C
:103F60002DE9F0410D691F4606460C4601F1140C7F
:103F70000023DCF8000081B202FB01710F0C000C81
:103F800002FB007089B2013301EB00419D424FEA10
:103F900010474CF8041BECDCD7B1A368AB4212DC31
:103FA000616830460131FFF790FF2269023204F167
:103FB0000C01804692000C30FFF77CFF2146304612
:103FC000FFF7B7FF444604EB850301355F612561C8
:103FD0002046BDE8F081020C12040346B2B9030486
:103FE000102013F07F4F04BF1B02083013F0704FF6
:103FF00004BF1B01043013F0404F04BF9B0002308C
:10400000002B06DB5B0003D5013070470020E8E79A
:1040100020207047036813F0070201460BD0DA072F
:1040200023D4980749BF5B089B0801200B605CBF45
:104030000B600220704798B2A8B91B0C102013F037
:10404000FF0F04BF1B0A08301A0704BF1B09043006
:104050009A0704BF9B080230DA0702D45B0806D037
:1040600001300B6070471046E9E7002070472020C0
:10407000704710B50C460121FFF727FF012244616C
:10408000026110BD2DE9F74F14460A6923699A426F
:10409000B8BF0B468846BCBFA0461C46D8F8107077
:1040A000D4F81090D8F80830D8F8041007EB0906B7
:1040B000B342B8BF0131FFF708FF00F1140505EB6B
:1040C000860E2B460022734516D304F1140208F124
:1040D000140102EB890301EB87070093009B019217
:1040E00093420CD8002E03DD5EF8043D002B5DD01A
:1040F000066103B0BDE8F08F43F8042BE3E7B2F8A4
:1041000000B0BBF1000F23D08946AC464FF0000849
:1041100059F8044BDCF800A0A3B21FFA8AFA0BFB93
:1041200003A34FEA144ADCF8004043444FEA144822
:104130000BFB0A8404EB1344E2469BB243EA0443BC
:104140004F454FEA14484AF8043B2BD8CCF804807A
:10415000019BB3F802A00432BAF1000F20D02B6803
:104160008946A8464FF0000BB9F800C0B8F80240E5
:104170000AFB0C445C44C4469BB243EA04434CF83B
:10418000043B59F8043BB8F804B01B0C0AFB03B31A
:1041900003EB14434F454FEA134B05D8C8F80430DE
:1041A00004359BE7D446B3E7E046DDE7013E99E7F7
:1041B0002DE9F843154612F0030206460F4607D0D4
:1041C000013A214C002354F82220FFF7C9FE07468C
:1041D000AD1035D0746A3CB91020FFF763FE7062F1
:1041E000C0E901440460C460D6F82480D8F80840CF
:1041F0004CB940F271213046FFF73BFF0023C8F86D
:104200000800044603604FF00008EB070AD5394662
:1042100022463046FFF736FF394681463046FFF7E3
:1042200088FE4F466D100BD0206838B922462146D3
:104230003046FFF727FF2060C0F800800446E4E71F
:104240003846BDE8F88300BF284B00082DE9F04749
:104250000C464FEA621A236949680AEB0309A3680E
:104260000746164609F10105AB4232DB3846FFF737
:104270002CFE0023804600F114011A4653452BDB27
:1042800020692AEAEA7A04F1140316F01F0201EB0E
:104290008A0103EB800C25D0C2F1200E00201E689D
:1042A0008A46964030434AF8040B53F8040B9C4569
:1042B00020FA0EF014D8486008B109F10205013D5A
:1042C0003846C8F810502146FFF733FE4046BDE897
:1042D000F08701315B00C7E741F823200133CDE7C8
:1042E0005146DCE7043953F8042B41F8042F9C4570
:1042F000F9D8E4E703690A699B1A30B50CD192003A
:10430000143014318418114454F8045D51F8042D0C
:10431000954203D005D30123184630BDA042F3D304
:10432000FAE74FF0FF33F7E72DE9F0470D46074670
:10433000114628461446FFF7DDFF061E08D1314618
:104340003846FFF7C2FD0123C0E90436BDE8F08717
:10435000A4BF23462C4638466168A6BF1D460026EA
:104360000126FFF7B2FD2B69C660266905F1140925
:1043700004F1140202EB860709EB830800F114052F
:104380004FF0000E52F804AB59F8044B1EFA8AF1B4
:10439000A3B2C91A230CC3EB1A4303EB214389B21E
:1043A0004FEA234EC84541EA0343944645F8043B8F
:1043B000E8D8BC4504D355F8043D83B10661C5E790
:1043C0005CF8041B1EFA81F31A1402EB11429BB233
:1043D00043EA02434FEA224E45F8043BE9E7013E37
:1043E000E9E72DE9F7430E46012159EC108B1546FC
:1043F000FFF76BFDC9F30A540746C9F3130334BB37
:104400000193B8F1000327D002A840F8083DFFF758
:1044100001FE0099F0B1019AC0F1200302FA03F302
:104420000B43C2407B610192019BBB61002B14BF17
:10443000022101213961C4B1A4F23344044434603F
:10444000C0F135002860384603B0BDE8F08343F47E
:104450008013D5E77961E7E701A8FFF7DBFD019B52
:104460007B61012139612030E5E707EB8103A0F290
:10447000324030601869FFF7AEFDC0EB4110E1E754
:1044800038B502FB01F4214600F056F8054618B194
:1044900022460021FEF730FA284638BD38B50546D9
:1044A000002945D051F8043C0C1F002BB8BFE4187C
:1044B00000F027FA1F4A1368104633B9636014608E
:1044C0002846BDE8384000F01DBAA3420CD9216847
:1044D0006218934204BF1A685B68636004BF521895
:1044E00022600460ECE713465A680AB1A242FAD986
:1044F00019685818A0420BD120680144581882420C
:104500001960DDD1106852685A6001441960D7E71C
:1045100002D90C232B60D3E7206821188A4204BFFC
:1045200011685268626004BF091821605C60C7E7C7
:1045300038BD00BF0802002070B5CD1C25F0030572
:1045400008350C2D38BF0C25002D064601DBA9428D
:1045500003D90C233360002070BD00F0D2F9214A4A
:104560001468214691B9204C23681BB9304600F0ED
:104570008DF920602946304600F088F9431C24D18B
:104580000C233360304600F0BDF9E4E70B685B1B99
:1045900018D40B2B0FD90B60CD50CC18304600F03F
:1045A000B1F904F10B00231D20F00700C31AD3D08A
:1045B0005A42E250D0E78C424B6816BF63601360EA
:1045C0000C46EBE70C464968CCE7C41C24F0030416
:1045D000A04205D0211A304600F058F90130CFD062
:1045E0002560DBE7080200200C0200202DE9F047DF
:1045F0008E689E4282460C469046994637D88A89F4
:1046000012F4906F31D0256809696F1A6569022329
:1046100005EB450595FBF3F509F101033B449D428C
:1046200038BF1D46530530D52946FFF785FF06469E
:1046300050B90C23CAF80030A38943F04003A3818A
:104640004FF0FF30BDE8F0873A462169FFF732FCB2
:10465000A38923F4906343F08003A38126616561FD
:104660003E44ED1B2660A5604E464E4500D94E46A1
:1046700032464146206800F02BF9A3689B1BA360DB
:1046800023681E4426600020DCE72A4600F03BF940
:1046900006460028E2D121695046FFF7FFFEC8E731
:1046A0002DE9F04F9DB0804603938B891D060C4683
:1046B00016460FD50B696BB94021FFF73DFF20600F
:1046C000206128B90C23C8F800304FF0FF30C7E054
:1046D000402363610023099320238DF82930302380
:1046E0008DF82A304FF0010B37463D4615F8013B57
:1046F0000BB1252B3ED1B7EB060A0BD05346324601
:1047000021464046FFF772FF013000F0A480099B6C
:10471000534409933B78002B00F09D8000234FF019
:10472000FF32CDE90523049307938DF853301A9394
:104730002F46052217F8011B4F48FCF7C1FA049BCE
:10474000D0B9D90644BF20228DF853201A0744BFA0
:104750002B228DF853202A782A2A15D0079A2F4623
:1047600000200A25394611F8013B303B092B4DD971
:10477000B8B10FE02F46B8E73F4A801A0BFA00F0B5
:10478000184304903D46D3E7039A111D1268039124
:10479000002A01DB079204E0524243F00203079231
:1047A00004933B782E2B0CD17B782A2B33D1039B9F
:1047B0001A1D1B680392002BB8BF4FF0FF3302375E
:1047C00005932E4D397803222846FCF779FA38B143
:1047D0004023401B03FA00F0049B0343013704937A
:1047E000397827488DF8281006227E1CFCF768FAD5
:1047F000002838D0234B13BB039B073323F0070358
:1048000008330393099B4B4409936DE705FB023280
:1048100001200F46A6E700230137059319460A2514
:10482000384610F8012B303A092A03D9002BC8D09A
:104830000591C6E705FB012101230746F0E703AB1D
:1048400000932246104B04A94046FEF7F1F8B0F160
:10485000FF3F8146D6D1A3895B063FF536AF099865
:104860001DB0BDE8F08F03AB00932246064B04A9B0
:104870004046FEF793FBEAE7344B00083A4B00084A
:104880003E4B0008312A0008ED45000838B5064CBB
:10489000002305460846236000F070F8431C02D14F
:1048A000236803B12B6038BDD002002082B001B96B
:1048B00001A942B14BB113780B601278101C18BFDC
:1048C000012002B070471046FBE76FF00100F8E7E7
:1048D000884210B501EB020307D8421E99420AD064
:1048E00011F8014B02F8014FF8E78342F5D981181E
:1048F000D21AD34200D110BD13F8014D01F8014D79
:10490000F7E770477047F8B5074614460E4621B9D9
:104910001146BDE8F840FFF70FBE22B9FFF7BEFD14
:1049200025462846F8BD00F021F8A0420FD22146C6
:104930003846FFF701FE05460028F2D031462246F0
:10494000FFF7B8FA31463846FFF7A8FDE9E73546E4
:10495000E7E749B1FF2A85BF8A2303600A704FF059
:10496000FF3098BF012070470846704751F8043C5B
:10497000181F002BBCBF0B58C0187047044A0549CC
:104980001368002B08BF0B46184410601846704788
:1049900010020020D8020020F8B500BFF8BC08BC07
:1049A0009E467047F8B500BFF8BC08BC9E467047ED
:1049B00000000000000000000102030406070809CF
:1049C00000000000010203044672657175656E63A4
:1049D00079206F6620746865207369676E616C204A
:1049E0006170706C696564203D20252E3266204818
:1049F0007A0D0A00494E4600696E66004E414E002F
:104A00006E616E003000303132333435363738392C
:104A1000414243444546003031323334353637382D
:104A20003961626364656600496E66696E697479AE
:104A3000004E614E000000000080E03779C3414322
:104A4000176E05B5B5B89346F5F93FE9034F384DF4
:104A5000321D30F94877825A3CBF737FDD4F1575A0
:104A6000000000000000F03F0000000000002440B3
:104A700000000000000059400000000000408F408E
:104A8000000000000088C34000000000006AF840F9
:104A90000000000080842E4100000000D01263411D
:104AA0000000000084D797410000000065CDCD4193
:104AB000000000205FA00242000000E87648374274
:104AC000000000A2941A6D42000040E59C30A24212
:104AD0000000901EC4BCD64200003426F56B0C4387
:104AE0000080E03779C3414300A0D885573476432E
:104AF00000C84E676DC1AB43003D9160E458E1438F
:104B0000408CB5781DAF154450EFE2D6E41A4B4403
:104B100092D54D06CFF08044F64AE1C7022DB54448
:104B2000B49DD9794378EA440500000019000000DB
:104B30007D000000232D302B2000686C4C00656642
:104B400067454647004300504F534958002E000028
:104B5000202020202020202020282828282820202D
:104B60002020202020202020202020202020202045
:104B700088101010101010101010101010101010BD
:104B8000040404040404040404041010101010109D
:104B90001041414141414101010101010101010176
:104BA00001010101010101010101011010101010AA
:104BB0001042424242424202020202020202020247
:104BC000020202020202020202020210101010206F
:104BD00000000000000000000000000000000000D5
:104BE00000000000000000000000000000000000C5
:104BF00000000000000000000000000000000000B5
:104C000000000000000000000000000000000000A4
:104C10000000000000000000000000000000000094
:104C20000000000000000000000000000000000084
:104C30000000000000000000000000000000000074
:104C40000000000000000000000000000000000064
:084C50008CBDFF7F0100000094
:044C5800F50100085A
:044C5C00D10100087A
:104C60000100000010000000010000000024F4001A
:104C70001400002000000000000000000000000000
:104C80000000000000000000000000000000000024
:104C90000000000000000000000000000000000014
:104CA0000000000000000000000000000000000004
:104CB00000000000000000000000000000000000F4
:104CC00000000000000000000000000000000000E4
:104CD0000000000043000000000000000000000091
:104CE00000000000000000000000000000000000C4
:104CF0000000000043000000000000000000000071
:104D000000000000000000000000000000000000A3
:104D10000000000043000000000000000000000050
:104D20000000000000000000000000000000000083
:104D30000000000043000000000000000000000030
:104D40000000000000000000000000000000000063
:104D50000000000043000000000000000000000010
:104D60000000000000000000000000000000000043
:104D700000000000430000000000000000000000F0
:104D80000000000000000000000000000000000023
:104D900000000000430000000000000000000000D0
:104DA0000000000000000000000000000000000003
:104DB0000000000053490008AD4800080000000052
:104DC0004F4B00084D4B0008394B0008394B000889
:104DD000394B0008394B0008394B0008394B0008A3
:104DE000394B0008394B0008394B0008FFFFFFFF23
:104DF000FFFFFFFFFFFFFFFFFFFF00000100415328
:104E000043494900000000000000000000000000CD
:104E100000000000000000000000000000004153FE
:104E200043494900000000000000000000000000AD
:104E30000000000000000000000000000000000072
:040000050800285D6A
:00000001FF
