:020000040800F2
:1000000000000220B51200080513000805130008BF
:100010000513000805130008051300080000000080
:1000200000000000000000000000000005130008B0
:1000300005130008000000000513000879100008EF
:100040000513000805130008051300080513000830
:100050000513000805130008051300080513000820
:100060000513000805130008051300080513000810
:100070000513000805130008051300080513000800
:1000800005130008051300080513000805130008F0
:1000900005130008051300080513000805130008E0
:1000A00005130008051300080513000805130008D0
:1000B0008510000805130008051300080513000843
:1000C00005130008051300080513000805130008B0
:1000D00005130008051300080513000805130008A0
:1000E0000513000805130008051300080513000890
:1000F0000513000805130008051300080513000880
:10010000051300080513000805130008051300086F
:10011000051300080513000805130008051300085F
:10012000051300080513000805130008051300084F
:10013000051300080000000000000000051300087F
:10014000051300080513000805130008051300082F
:10015000051300080513000805130008051300081F
:10016000051300080513000805130008051300080F
:10017000051300080513000805130008000000001F
:10018000000000000513000800000000000000004F
:10019000051300080000000000000000051300081F
:1001A000000000000000000000000000051300082F
:1001B00005130008051300080513000805130008BF
:0401C000051300081B
:1001C40010B5054C237833B9044B13B10448AFF38D
:1001D40000800123237010BD0C00002000000000EB
:1001E4005013000808B5034B1BB103490348AFF390
:1001F400008008BD0000000010000020501300081B
:1002040053B94AB9002908BF00281CBF4FF0FF3179
:100214004FF0FF3000F072B9ADF1080C6DE904CE77
:1002240000F006F8DDF804E0DDE9022304B07047CD
:100234002DE9F047089E04468846002B4BD18A429C
:10024400154667D9B2FA82F24AB1C2F1200701FA1F
:1002540002F320FA07F7954047EA030894404FEA6F
:10026400154E230CB8FBFEF71FFA85FC0EFB17880E
:1002740043EA084307FB0CF1994209D9EB1807F14B
:10028400FF3080F01B81994240F21881023F2B44D9
:100294005B1AA4B2B3FBFEF00EFB103344EA034432
:1002A40000FB0CFCA44509D92C1900F1FF3380F0A4
:1002B4000781A44540F2048102382C4440EA0740F7
:1002C400A4EB0C0400271EB1D4400023C6E900436C
:1002D4003946BDE8F0878B4209D9002E00F0EB8047
:1002E4000027C6E9000138463946BDE8F087B3FA6D
:1002F40083F7002F47D18B4202D3824200F2FA8067
:10030400841A61EB030301209846002EE0D0C6E96D
:100314000048DDE702B9FFDEB2FA82F2002A40F0BB
:100324008F80491B4FEA154E1FFA85F80127B1FB50
:10033400FEFC230C0EFB1C1143EA014308FB0CF1E9
:10034400994207D9EB180CF1FF3002D2994200F21E
:10035400CD808446591AA3B2B1FBFEF00EFB1014F3
:1003640043EA044408FB00F8A04507D92C1900F11E
:10037400FF3302D2A04500F2B6801846A4EB08046D
:1003840040EA0C409FE7C7F1200CBB4022FA0CFE68
:100394004EEA030E01FA07F420FA0CF521FA0CF3E5
:1003A4004FEA1E482543B3FBF8F92C0C08FB19331C
:1003B4001FFA8EFA44EA034309FB0AF49C4202FA48
:1003C40007F200FA07F10BD91EEB030309F1FF3022
:1003D40080F087809C4240F28480A9F10209734432
:1003E4001B1BADB2B3FBF8F008FB103345EA034422
:1003F40000FB0AFAA24508D91EEB040400F1FF33FE
:100404006BD2A24569D90238744440EA0940A0FB82
:100414000289A4EB0A044C45C2464B4654D351D03E
:10042400002E69D0B1EB0A0564EB030404FA0CFC5A
:10043400FD40FC404CEA0505C6E90054002747E7A7
:10044400C2F1200320FA03F7954001FA02F021FAE1
:1004540003F34FEA154E3843010CB3FBFEF71FFAC2
:1004640085F80EFB173341EA034107FB08F38B427F
:1004740004FA02F407D9691807F1FF3C2FD28B4222
:100484002DD9023F2944CB1A81B2B3FBFEF00EFBF7
:10049400103341EA034100FB08F38B4207D9691882
:1004A40000F1FF3C17D28B4215D902382944C91AEE
:1004B40040EA07473BE73746304609E70746E7E6A1
:1004C4001846FBE64145ABD2B8EB020A69EB0E02D3
:1004D40001381346A4E76046E9E7184695E76746FE
:1004E400D1E781467CE702382C4447E7ACF1020CA3
:1004F4002B442FE7384608E73746E9E6704700BF44
:1005040010B504460E4B18784FF47A73B3FBF0F32E
:100514000C4A1068B0FBF3F000F088F868B90F2CAF
:1005240001D901200AE0002221464FF0FF3000F0FB
:1005340049F8034B5C60002000E0012010BD00BFBF
:10054400000000200800002008B50B4B1A6842F494
:1005540000721A601A6842F480621A601A6842F4DF
:1005640080721A60032000F01BF80020FFF7C8FF18
:1005740000F05AFE002008BD003C0240034A116806
:10058400034B1B780B441360704700BF2800002006
:1005940000000020014B1868704700BF28000020AD
:1005A400074AD36823F4E0631B041B0C000200F425
:1005B400E060184340F0BF6040F40030D060704702
:1005C40000ED00E030B4174BDB68C3F30223C3F142
:1005D4000704042C28BF04241D1D062D18D9033B31
:1005E4004FF0FF3505FA04F421EA0401994005FAB5
:1005F40003F322EA0303194300280BDB0901C9B200
:1006040000F1604000F5614080F8001330BC704791
:100614000023E5E700F00F000901C9B2024B1954A9
:10062400F4E700BF00ED00E014ED00E00138B0F1A4
:10063400807F0AD2064B5860064AF02182F82310C4
:100644000020986007221A6070470120704700BF9D
:1006540010E000E000ED00E0042805D0054A13682E
:1006640023F0040313607047024A136843F0040341
:100674001360704710E000E0704708B5FFF7FCFF17
:1006840008BD000000230F2B00F2D180F0B482B02B
:1006940039E0062200E00022B2403A430234644EBC
:1006A40046F82420634A1468EA4302EA04064F68C1
:1006B40017F4803F01D045EA04065E4C2660646866
:1006C40002EA04064F6817F4003F01D045EA040625
:1006D400584C6660A46802EA04064F6817F4801F49
:1006E40001D045EA0406534CA660E46822404E68F3
:1006F40016F4001F01D045EA04024E4CE2600133B7
:100704000F2B00F2918001229A400C6804EA020542
:10071400AA42F4D14C68022C01D0122C10D1DE086C
:10072400083650F826C003F00704A7000F24BC4085
:100734002CEA040C0C69BC4044EA0C0440F8264042
:1007440004685F000326BE40F64306EA040C4C68C6
:1007540004F00304BC4044EA0C0404604C6804F153
:10076400FF3CBCF1010F03D9112C01D0122C10D184
:10077400846806EA040CCC68BC4044EA0C04846037
:10078400446824EA02024C68C4F300149C401443F5
:100794004460C26816408A68BA403243C2604A68FC
:1007A40012F0805FABD000220192234A546C44F4CF
:1007B40080445464526C02F480420192019A9C0871
:1007C400A61C1B4A52F8267003F0030296000F225F
:1007D400B24027EA0207194A90423FF45CAF02F59F
:1007E4008062904216D002F58062904214D002F5E5
:1007F4008062904212D002F58062904210D002F5DD
:10080400806290420ED002F5806290423FF441AF84
:10081400072241E701223FE702223DE703223BE7AB
:10082400042239E7052237E702B0F0BC704770476D
:1008340000380140003C0140003802400000024002
:10084400002800F09D8070B504464F4B1B6803F0F0
:100854000F038B4209D2CBB24B4A1370136803F0D7
:100864000F038B4201D0012070BD236813F0020FE7
:1008740017D013F0040F04D0444A936843F4E053B0
:100884009360236813F0080F04D0404A936843F43C
:10089400604393603D4A936823F0F003A0680343E8
:1008A40093600D46236813F0010F32D06368012B67
:1008B40021D09A1E012A25D9344A126812F0020F57
:1008C40060D032498A6822F0030213438B60FFF739
:1008D40061FE06462D4B9B6803F00C036268B3EB84
:1008E400820F16D0FFF756FE801B41F288339842E0
:1008F400F0D90320B8E7254A126812F4003FE0D18A
:100904000120B1E7214A126812F0007FD9D10120F9
:10091400AAE71D4B1B6803F00F03AB4209D9EAB2E7
:10092400194B1A701B6803F00F03AB4201D001206E
:100934009AE7236813F0040F06D0144A936823F44B
:10094400E053E1680B439360236813F0080F07D06A
:100954000E4A936823F46043216943EAC103936018
:1009640000F020F8094B9B68C3F30313084AD35CD7
:10097400D840084B18600020FFF7C2FD002073E741
:100984000120704701206FE7003C0240003802401C
:100994006813000808000020014B1868704700BF66
:1009A400080000202DE9F04B5C4B9B6803F00C031E
:1009B400082B07D00C2B5BD0042B00F0AD805848DB
:1009C400BDE8F08B554B5A6802F03F025B6813F4A4
:1009D400800F2AD0514B5B68C3F388131E4600274F
:1009E4005C010025E41A65EB0705A90141EA94615D
:1009F400A001001B61EB0501CB0043EA5073C40066
:100A0400A01943EB07014B0243EAD05344022046AA
:100A140019460023FFF7F4FB404B5B68C3F3014323
:100A240001335B00B0FBF3F0CAE73C4B5B68C3F3F4
:100A340088131E4600275C010025E41A65EB0705B0
:100A4400A90141EA9461A001001B61EB0501CB00FF
:100A540043EA5073C400A01943EB07018B0243EA35
:100A640090538402204619460023FFF7C9FBD3E7BD
:100A74002A4B5A6802F03F025B6813F4800F28D0B7
:100A8400264B5B68C3F388131E4600275C010025D0
:100A9400E41A65EB0705A90141EA9461A001001B72
:100AA40061EB0501CB0043EA5073C400A01943EB8A
:100AB40007014B0243EAD05344022046194600235F
:100AC400FFF79EFB154B5B68C3F30273B0FBF3F0B7
:100AD40076E7124B5B68C3F388131E4600275C015C
:100AE4000025E41A65EB0705A90141EA9461A00118
:100AF400001B61EB0501CB0043EA5073C400A0194D
:100B040043EB07018B0243EA9053840220461946C3
:100B14000023FFF775FBD5E7024851E70038024090
:100B24000024F40000127A0070B582B00446036811
:100B340013F0010F41D0A64B9B6803F00C03042B68
:100B440032D0A34B9B6803F00C03082B27D0A04B97
:100B54009B6803F00C030C2B59D06368B3F5803FFA
:100B64005BD0B3F5A02F5ED0994B1A6822F4803283
:100B74001A601A6822F480221A606368002B5CD021
:100B8400FFF708FD0546924B1B6813F4003F14D190
:100B9400FFF700FD401B6428F5D903209DE18C4B31
:100BA4005B6813F4800FD2D0894B1B6813F4003FA9
:100BB40003D06368002B00F08D81236813F0020FCB
:100BC40067D0834B9B6813F00C0F4AD0804B9B6813
:100BD40003F00C03082B3FD07D4B9B6803F00C0300
:100BE4000C2B48D0E368002B74D07A4B01221A6096
:100BF400FFF7D0FC0546764B1B6813F0020F60D15B
:100C0400FFF7C8FC401B0228F5D9032065E1704BAF
:100C14005B6813F4800FA0D0C6E76D4A136843F4F1
:100C240080331360A9E76A4B1A6842F480221A6081
:100C34001A6842F480321A609FE7FFF7ABFC05465E
:100C4400634B1B6813F4003FB7D0FFF7A3FC401BB2
:100C54006428F5D9032040E15D4B5B6813F4800FF1
:100C6400BAD15B4B1B6813F0020F0AD0E368012B67
:100C740007D0012031E1564B5B6813F4800FB1D1EA
:100C8400EFE7534A136823F0F803216943EAC103E9
:100C94001360236813F0080F40D0636963B34E4BAD
:100CA40001221A60FFF776FC0546494B5B6F13F08F
:100CB400020F33D1FFF76EFC401B0228F5D9032045
:100CC4000BE1434A136823F0F803216943EAC103A3
:100CD4001360DEE73F4B00221A60FFF75BFC05461A
:100CE4003B4B1B6813F0020FD3D0FFF753FC401BA0
:100CF4000228F5D90320F0E0374B00221A60FFF7F1
:100D040049FC0546324B5B6F13F0020F06D0FFF728
:100D140041FC401B0228F5D90320DEE0236813F0D0
:100D2400040F79D02A4B1B6C13F0805F33D100235E
:100D34000193274B1A6C42F080521A641B6C03F027
:100D440080530193019B0125244B1B6813F4807F7E
:100D540023D0A368012B34D0052B41D01C4B1A6F30
:100D640022F001021A671A6F22F004021A67A368BC
:100D7400002B3FD0FFF70EFC0646154B1B6F13F0FC
:100D8400020F48D1FFF706FC801B41F288339842DA
:100D9400F3D90320A1E00025D6E7104A136843F4F1
:100DA40080731360FFF7F6FB06460C4B1B6813F4C5
:100DB400807FCED1FFF7EEFB801B0228F5D90320FC
:100DC4008BE0034A136F43F001031367CFE700BFBF
:100DD4000038024000004742800E47420070004045
:100DE400404B1A6F42F004021A671A6F42F0010274
:100DF4001A67BCE7FFF7CEFB06463A4B1B6F13F0AE
:100E0400020F08D0FFF7C6FB801B41F288339842DB
:100E1400F3D9032061E0E5B9A369002B5CD0314A22
:100E2400926802F00C02082A59D0022B17D02E4BDC
:100E340000221A60FFF7AEFB04462A4B1B6813F02E
:100E4400007F45D0FFF7A6FB001B0228F5D903203D
:100E540043E0244A136C23F080531364DCE7224BF1
:100E640000221A60FFF796FB05461E4B1B6813F021
:100E7400007F06D0FFF78EFB401B0228F5D9032024
:100E84002BE0E369226A1343626A43EA8213A26A8B
:100E94005208013A43EA0243E26A43EA0263226BDC
:100EA40043EA02730F4A53600F4B01221A60FFF7A3
:100EB40071FB04460B4B1B6813F0007F06D1FFF750
:100EC40069FB001B0228F5D9032006E0002004E09A
:100ED400002002E0012000E0002002B070BD0120EB
:100EE400FBE700BF0038024060004742704770478C
:100EF40070477047704710B5044603681A6912F0CA
:100F0400020F11D0DA6812F0020F0DD06FF0020256
:100F14001A610123037603689B6913F0030F70D0F1
:100F2400FFF7E6FF0023237623681A6912F0040F03
:100F340012D0DA6812F0040F0ED06FF004021A61B6
:100F44000223237623689B6913F4407F5FD02046F5
:100F5400FFF7CEFF0023237623681A6912F0080FE7
:100F640012D0DA6812F0080F0ED06FF008021A617E
:100F7400042323762368DB6913F0030F4ED0204645
:100F8400FFF7B6FF0023237623681A6912F0100FC7
:100F940012D0DA6812F0100F0ED06FF010021A613E
:100FA400082323762368DB6913F4407F3DD0204671
:100FB400FFF79EFF0023237623681A6912F0010FBE
:100FC40003D0DA6812F0010F36D123681A6912F0DF
:100FD400800F03D0DA6812F0800F34D123681A69C5
:100FE40012F0400F03D0DA6812F0400F32D12368B8
:100FF4001A6912F0200F03D0DA6812F0200F30D1F2
:1010040010BDFFF774FF2046FFF773FF8AE7204601
:10101400FFF76DFF2046FFF76CFF9BE72046FFF7C5
:1010240066FF2046FFF765FFACE72046FFF75FFF4A
:101034002046FFF75EFFBDE76FF001021A6120460C
:10104400FFF754FFC1E76FF080021A61204600F0F9
:1010540010F8C3E76FF040021A612046FFF74AFF19
:10106400C5E76FF020021A61204600F001F8C7E7D7
:101074007047704708B5FFF781FAFFF7FEFA08BD1D
:1010840008B50248FFF737FF08BD00BF2C00002059
:1010940000B587B0002100910A4B1A6B42F001029F
:1010A4001A631B6B03F001030093009B012302935B
:1010B40020230193039101A90348FFF7E3FA07B042
:1010C4005DF804FB0038024000000240FEE7000027
:1010D40010B594B0012307934FF4A023089302237F
:1010E4000D934FF480030E9354285FD032D978289F
:1010F4006ED0B42858D100220092424B196C41F0B2
:10110400805119641B6C03F080530093009B01927F
:101114003D4B196841F4404119601B6803F4404396
:101124000193019B394B0121196008230F934FF45C
:10113400B473109302231193129313930F2102910A
:10114400039304924FF4A05305934FF480530693F2
:10115400052413E0322827D108230F936423109326
:1011640002231193129313930F22029203930023E9
:1011740004934FF4805305930693012407A8FFF7C3
:10118400D3FC002839D1214602A8FFF759FB0028D7
:1011940035D1FFF701FC1E4BA3FB00308009FFF79C
:1011A40045FA0420FFF758FA14B010BD08230F9332
:1011B400A823109302241194129413940F230293DE
:1011C4000394002304934FF4805305930693D5E7C7
:1011D40008230F93F0231093022311931293139374
:1011E4000F2202920393002304934FF4A053059318
:1011F4004FF4805306930324C0E7FFF767FFFFF71C
:1012040065FF00BF003802400070004040000E42FD
:10121400D34D621008B5FFF797F93220FFF758FF56
:10122400FFF736FFFEE7000008B50320FFF7B8F923
:101234000B4A536A43F4E0235362002211466FF0D1
:101244000B00FFF7BFF9002211466FF00A00FFF709
:10125400B9F9002211466FF00900FFF7B3F908BD90
:1012640000ED00E00F49D1F8883043F47003C1F871
:1012740088300D4B1A6842F001021A600020986011
:101284001A6822F0847222F480321A60074A5A6083
:101294001A6822F480221A60D8604FF000638B60D1
:1012A400704700BF00ED00E0003802401030002419
:1012B400DFF834D0002103E00C4B5B584350043179
:1012C4000B480C4B42189A42F6D30B4A02E0002317
:1012D40042F8043B094B9A42F9D3FFF7C3FF00F0ED
:1012E40011F8FFF797FF70470000022090130008E1
:1012F400000000200C0000200C00002068000020EA
:10130400FEE7000070B50D4E0D4CA41BA410002583
:10131400A54209D10B4E0C4C00F018F8A41BA410E4
:101324000025A54205D170BD56F8253098470135F2
:10133400EEE756F8253098470135F2E788130008A0
:1013440088130008881300088C130008F8B500BF40
:10135400F8BC08BC9E467047F8B500BFF8BC08BC92
:041364009E467047EA
:10136800000000000000000001020304060708094D
:08137800000000000102030463
:08138000B4EEFF7F0100000044
:04138800E90100086F
:04138C00C50100088F
:0C13900001000000100000000024F40028
:04000005080012B528
:00000001FF
