:020000040800F2
:1000000000000220F91600084917000849170008E7
:1000100049170008491700084917000800000000A8
:100020000000000000000000000000004917000868
:10003000491700080000000049170008F9130008DC
:100040004917000849170008491700084917000810
:100050004917000849170008491700084917000800
:1000600049170008491700084917000849170008F0
:1000700049170008491700084917000849170008E0
:1000800049170008491700084917000849170008D0
:1000900049170008491700084917000849170008C0
:1000A00049170008491700084917000849170008B0
:1000B00005140008491700084917000849170008E7
:1000C0004917000849170008491700084917000890
:1000D0004917000849170008491700084917000880
:1000E0004917000849170008491700084917000870
:1000F0004917000849170008491700084917000860
:10010000491700084917000849170008491700084F
:10011000491700084917000849170008491700083F
:10012000491700084917000849170008491700082F
:1001300049170008000000000000000049170008EF
:10014000491700084917000849170008491700080F
:1001500049170008491700084917000849170008FF
:1001600049170008491700084917000849170008EF
:100170004917000849170008491700080000000047
:100180000000000049170008000000000000000007
:10019000491700080000000000000000491700088F
:1001A00000000000000000000000000049170008E7
:1001B000491700084917000849170008491700089F
:0401C00049170008D3
:1001C40010B5054C237833B9044B13B10448AFF38D
:1001D40000800123237010BD0C00002000000000EB
:1001E4009417000808B5034B1BB103490348AFF348
:1001F400008008BD000000001000002094170008D3
:1002040053B94AB9002908BF00281CBF4FF0FF3179
:100214004FF0FF3000F072B9ADF1080C6DE904CE77
:1002240000F006F8DDF804E0DDE9022304B07047CD
:100234002DE9F047089E04468846002B4BD18A429C
:10024400154667D9B2FA82F24AB1C2F1200701FA1F
:1002540002F320FA07F7954047EA030894404FEA6F
:10026400154E230CB8FBFEF71FFA85FC0EFB17880E
:1002740043EA084307FB0CF1994209D9EB1807F14B
:10028400FF3080F01B81994240F21881023F2B44D9
:100294005B1AA4B2B3FBFEF00EFB103344EA034432
:1002A40000FB0CFCA44509D92C1900F1FF3380F0A4
:1002B4000781A44540F2048102382C4440EA0740F7
:1002C400A4EB0C0400271EB1D4400023C6E900436C
:1002D4003946BDE8F0878B4209D9002E00F0EB8047
:1002E4000027C6E9000138463946BDE8F087B3FA6D
:1002F40083F7002F47D18B4202D3824200F2FA8067
:10030400841A61EB030301209846002EE0D0C6E96D
:100314000048DDE702B9FFDEB2FA82F2002A40F0BB
:100324008F80491B4FEA154E1FFA85F80127B1FB50
:10033400FEFC230C0EFB1C1143EA014308FB0CF1E9
:10034400994207D9EB180CF1FF3002D2994200F21E
:10035400CD808446591AA3B2B1FBFEF00EFB1014F3
:1003640043EA044408FB00F8A04507D92C1900F11E
:10037400FF3302D2A04500F2B6801846A4EB08046D
:1003840040EA0C409FE7C7F1200CBB4022FA0CFE68
:100394004EEA030E01FA07F420FA0CF521FA0CF3E5
:1003A4004FEA1E482543B3FBF8F92C0C08FB19331C
:1003B4001FFA8EFA44EA034309FB0AF49C4202FA48
:1003C40007F200FA07F10BD91EEB030309F1FF3022
:1003D40080F087809C4240F28480A9F10209734432
:1003E4001B1BADB2B3FBF8F008FB103345EA034422
:1003F40000FB0AFAA24508D91EEB040400F1FF33FE
:100404006BD2A24569D90238744440EA0940A0FB82
:100414000289A4EB0A044C45C2464B4654D351D03E
:10042400002E69D0B1EB0A0564EB030404FA0CFC5A
:10043400FD40FC404CEA0505C6E90054002747E7A7
:10044400C2F1200320FA03F7954001FA02F021FAE1
:1004540003F34FEA154E3843010CB3FBFEF71FFAC2
:1004640085F80EFB173341EA034107FB08F38B427F
:1004740004FA02F407D9691807F1FF3C2FD28B4222
:100484002DD9023F2944CB1A81B2B3FBFEF00EFBF7
:10049400103341EA034100FB08F38B4207D9691882
:1004A40000F1FF3C17D28B4215D902382944C91AEE
:1004B40040EA07473BE73746304609E70746E7E6A1
:1004C4001846FBE64145ABD2B8EB020A69EB0E02D3
:1004D40001381346A4E76046E9E7184695E76746FE
:1004E400D1E781467CE702382C4447E7ACF1020CA3
:1004F4002B442FE7384608E73746E9E6704700BF44
:1005040010B504460E4B18784FF47A73B3FBF0F32E
:100514000C4A1068B0FBF3F000F094F868B90F2CA3
:1005240001D901200AE0002221464FF0FF3000F0FB
:1005340049F8034B5C60002000E0012010BD00BFBF
:10054400000000200800002008B50B4B1A6842F494
:1005540000721A601A6842F480621A601A6842F4DF
:1005640080721A60032000F01BF80020FFF7C8FF18
:1005740001F04CF8002008BD003C0240034A116819
:10058400034B1B780B441360704700BF2800002006
:1005940000000020014B1868704700BF28000020AD
:1005A400074AD36823F4E0631B041B0C000200F425
:1005B400E060184340F0BF6040F40030D060704702
:1005C40000ED00E030B4174BDB68C3F30223C3F142
:1005D4000704042C28BF04241D1D062D18D9033B31
:1005E4004FF0FF3505FA04F421EA0401994005FAB5
:1005F40003F322EA0303194300280BDB0901C9B200
:1006040000F1604000F5614080F8001330BC704791
:100614000023E5E700F00F000901C9B2024B1954A9
:10062400F4E700BF00ED00E014ED00E000F01F026D
:10063400400901239340024A42F82030704700BF2A
:1006440000E100E00138B0F1807F0AD2064B586027
:10065400064AF02182F823100020986007221A60CD
:1006640070470120704700BF10E000E000ED00E09B
:10067400042805D0054A136823F004031360704767
:10068400024A136843F004031360704710E000E06B
:10069400704708B5FFF7FCFF08BD000000230F2BCF
:1006A40000F2D180F0B482B039E0062200E00022EA
:1006B400B2403A430234644E46F82420634A146834
:1006C400EA4302EA04064F6817F4803F01D045EA82
:1006D40004065E4C2660646802EA04064F6817F458
:1006E400003F01D045EA0406584C6660A46802EA5B
:1006F40004064F6817F4801F01D045EA0406534CE2
:10070400A660E46822404E6816F4001F01D045EA52
:1007140004024E4CE26001330F2B00F2918001225F
:100724009A400C6804EA0205AA42F4D14C68022CEF
:1007340001D0122C10D1DE08083650F826C003F080
:100744000704A7000F24BC402CEA040C0C69BC402D
:1007540044EA0C0440F8264004685F000326BE40C7
:10076400F64306EA040C4C6804F00304BC4044EA73
:100774000C0404604C6804F1FF3CBCF1010F03D984
:10078400112C01D0122C10D1846806EA040CCC6818
:10079400BC4044EA0C048460446824EA02024C68C5
:1007A400C4F300149C4014434460C26816408A6831
:1007B400BA403243C2604A6812F0805FABD0002274
:1007C4000192234A546C44F480445464526C02F4FD
:1007D40080420192019A9C08A61C1B4A52F826707A
:1007E40003F0030296000F22B24027EA0207194AD7
:1007F40090423FF45CAF02F58062904216D002F55D
:100804008062904214D002F58062904212D002F5C8
:100814008062904210D002F5806290420ED002F5C0
:10082400806290423FF441AF072241E701223FE753
:1008340002223DE703223BE7042239E7052237E79A
:1008440002B0F0BC7047704700380140003C0140E2
:10085400003802400000024070B588B00C461646CD
:1008640008B300230293204D2A6B42F004022A634A
:100874002A6B02F004020292029A4FF4007203926D
:1008840002220492032206920593079303A91748B0
:10089400FFF704FFAB6823F0784344EAC6041C4323
:1008A400AC6008B070BD002301930F4D2A6B42F079
:1008B40001022A632A6B02F001020192019A4FF4A9
:1008C40080720392022204920322069205930793F4
:1008D40003A90748FFF7E2FEAB6823F0EC63344357
:1008E4001C43AC60DDE700BF003802400008024052
:1008F40000000240002800F09D8070B504464F4B74
:100904001B6803F00F038B4209D2CBB24B4A13701E
:10091400136803F00F038B4201D0012070BD2368DC
:1009240013F0020F17D013F0040F04D0444A936855
:1009340043F4E0539360236813F0080F04D0404A53
:10094400936843F4604393603D4A936823F0F00353
:10095400A068034393600D46236813F0010F32D05F
:100964006368012B21D09A1E012A25D9344A1268C2
:1009740012F0020F60D032498A6822F00302134356
:100984008B60FFF707FE06462D4B9B6803F00C03B4
:100994006268B3EB820F16D0FFF7FCFD801B41F2B7
:1009A40088339842F0D90320B8E7254A126812F434
:1009B400003FE0D10120B1E7214A126812F0007F24
:1009C400D9D10120AAE71D4B1B6803F00F03AB42EA
:1009D40009D9EAB2194B1A701B6803F00F03AB4232
:1009E40001D001209AE7236813F0040F06D0144ABB
:1009F400936823F4E053E1680B439360236813F096
:100A0400080F07D00E4A936823F46043216943EA30
:100A1400C103936000F020F8094B9B68C3F30313F0
:100A2400084AD35CD840084B18600020FFF768FDE3
:100A3400002073E70120704701206FE7003C02406B
:100A440000380240AC17000808000020014B186869
:100A5400704700BF080000202DE9F04B5C4B9B68F9
:100A640003F00C03082B07D00C2B5BD0042B00F0F5
:100A7400AD805848BDE8F08B554B5A6802F03F02F0
:100A84005B6813F4800F2AD0514B5B68C3F388135F
:100A94001E4600275C010025E41A65EB0705A90141
:100AA40041EA9461A001001B61EB0501CB0043EA1C
:100AB4005073C400A01943EB07014B0243EAD0531F
:100AC4004402204619460023FFF79AFB404B5B681B
:100AD400C3F3014301335B00B0FBF3F0CAE73C4BC3
:100AE4005B68C3F388131E4600275C010025E41AE3
:100AF40065EB0705A90141EA9461A001001B61EBC4
:100B04000501CB0043EA5073C400A01943EB07016D
:100B14008B0243EA90538402204619460023FFF7D0
:100B24006FFBD3E72A4B5A6802F03F025B6813F469
:100B3400800F28D0264B5B68C3F388131E4600271A
:100B44005C010025E41A65EB0705A90141EA9461FB
:100B5400A001001B61EB0501CB0043EA5073C40004
:100B6400A01943EB07014B0243EAD0534402204649
:100B740019460023FFF744FB154B5B68C3F302736C
:100B8400B0FBF3F076E7124B5B68C3F388131E46A1
:100B940000275C010025E41A65EB0705A90141EA79
:100BA4009461A001001B61EB0501CB0043EA507383
:100BB400C400A01943EB07018B0243EA905384025B
:100BC400204619460023FFF71BFBD5E7024851E7EF
:100BD400003802400024F40000127A0070B582B09C
:100BE4000446036813F0010F41D0A64B9B6803F041
:100BF4000C03042B32D0A34B9B6803F00C03082B8B
:100C040027D0A04B9B6803F00C030C2B59D06368CE
:100C1400B3F5803F5BD0B3F5A02F5ED0994B1A6833
:100C240022F480321A601A6822F480221A606368FF
:100C3400002B5CD0FFF7AEFC0546924B1B6813F407
:100C4400003F14D1FFF7A6FC401B6428F5D903200C
:100C54009DE18C4B5B6813F4800FD2D0894B1B68E9
:100C640013F4003F03D06368002B00F08D812368E8
:100C740013F0020F67D0834B9B6813F00C0F4AD01C
:100C8400804B9B6803F00C03082B3FD07D4B9B6883
:100C940003F00C030C2B48D0E368002B74D07A4B80
:100CA40001221A60FFF776FC0546764B1B6813F0A9
:100CB400020F60D1FFF76EFC401B0228F5D9032018
:100CC40065E1704B5B6813F4800FA0D0C6E76D4AF2
:100CD400136843F480331360A9E76A4B1A6842F43B
:100CE40080221A601A6842F480321A609FE7FFF784
:100CF40051FC0546634B1B6813F4003FB7D0FFF764
:100D040049FC401B6428F5D9032040E15D4B5B6836
:100D140013F4800FBAD15B4B1B6813F0020F0AD097
:100D2400E368012B07D0012031E1564B5B6813F4D3
:100D3400800FB1D1EFE7534A136823F0F803216918
:100D440043EAC1031360236813F0080F40D06369BA
:100D540063B34E4B01221A60FFF71CFC0546494B56
:100D64005B6F13F0020F33D1FFF714FC401B022812
:100D7400F5D903200BE1434A136823F0F8032169F2
:100D840043EAC1031360DEE73F4B00221A60FFF71A
:100D940001FC05463B4B1B6813F0020FD3D0FFF751
:100DA400F9FB401B0228F5D90320F0E0374B002261
:100DB4001A60FFF7EFFB0546324B5B6F13F0020F2F
:100DC40006D0FFF7E7FB401B0228F5D90320DEE03D
:100DD400236813F0040F79D02A4B1B6C13F0805F47
:100DE40033D100230193274B1A6C42F080521A64CA
:100DF4001B6C03F080530193019B0125244B1B685A
:100E040013F4807F23D0A368012B34D0052B41D069
:100E14001C4B1A6F22F001021A671A6F22F00402A7
:100E24001A67A368002B3FD0FFF7B4FB0646154BA7
:100E34001B6F13F0020F48D1FFF7ACFB801B41F28C
:100E440088339842F3D90320A1E00025D6E7104A5D
:100E5400136843F480731360FFF79CFB06460C4B46
:100E64001B6813F4807FCED1FFF794FB801B02280C
:100E7400F5D903208BE0034A136F43F00103136792
:100E8400CFE700BF0038024000004742800E4742CF
:100E940000700040404B1A6F42F004021A671A6F48
:100EA40042F001021A67BCE7FFF774FB06463A4BAF
:100EB4001B6F13F0020F08D0FFF76CFB801B41F28D
:100EC40088339842F3D9032061E0E5B9A369002B84
:100ED4005CD0314A926802F00C02082A59D0022BE5
:100EE40017D02E4B00221A60FFF754FB04462A4BFE
:100EF4001B6813F0007F45D0FFF74CFB001B022852
:100F0400F5D9032043E0244A136C23F0805313647F
:100F1400DCE7224B00221A60FFF73CFB05461E4B20
:100F24001B6813F0007F06D0FFF734FB401B022838
:100F3400F5D903202BE0E369226A1343626A43EA8A
:100F44008213A26A5208013A43EA0243E26A43EA7C
:100F54000263226B43EA02730F4A53600F4B012270
:100F64001A60FFF717FB04460B4B1B6813F0007F56
:100F740006D1FFF70FFB001B0228F5D9032006E07A
:100F8400002004E0002002E0012000E0002002B084
:100F940070BD0120FBE700BF0038024060004742FB
:100FA40030B4046A24F0100404628469056A24F4E9
:100FB400407444EA022222F470421B039BB21A4397
:100FC40025F0A005090101F0A00129438261016215
:100FD40030BC704730B4046A24F480740462C46979
:100FE400056A24F00304224322F0F0021B01DBB261
:100FF4001A4325F42065090201F420612943C261E2
:10100400016230BC704730B4046A24F48054046232
:10101400C469056A24F4407444EA022222F470424A
:101024001B039BB21A4325F42045090301F4204114
:101034002943C261016230BC7047704770477047F2
:101044007047704710B5044603681A6912F0020F1E
:1010540011D0DA6812F0020F0DD06FF002021A619B
:101064000123037603689B6913F0030F70D0FFF725
:10107400E6FF0023237623681A6912F0040F12D0C6
:10108400DA6812F0040F0ED06FF004021A61022322
:10109400237623689B6913F4407F5FD02046FFF7D3
:1010A400CEFF0023237623681A6912F0080F12D0AA
:1010B400DA6812F0080F0ED06FF008021A610423E8
:1010C40023762368DB6913F0030F4ED02046FFF725
:1010D400B6FF0023237623681A6912F0100F12D08A
:1010E400DA6812F0100F0ED06FF010021A610823A4
:1010F40023762368DB6913F4407F3DD02046FFF755
:101104009EFF0023237623681A6912F0010F03D08F
:10111400DA6812F0010F36D123681A6912F0800FD1
:1011240003D0DA6812F0800F34D123681A6912F000
:10113400400F03D0DA6812F0400F32D123681A69E5
:1011440012F0200F03D0DA6812F0200F30D110BD56
:10115400FFF774FF2046FFF773FF8AE72046FFF787
:101164006DFF2046FFF76CFF9BE72046FFF766FF05
:101174002046FFF765FFACE72046FFF75FFF2046F8
:10118400FFF75EFFBDE76FF001021A612046FFF72B
:1011940054FFC1E76FF080021A61204600F029F97C
:1011A400C3E76FF040021A612046FFF74AFFC5E724
:1011B4006FF020021A61204600F01AF9C7E7000018
:1011C40003682E4A904212D0B0F1804F0FD0A2F59E
:1011D4007C4290420BD002F58062904207D002F527
:1011E4008062904203D002F57842904203D123F00A
:1011F40070034A681343214A90422AD0B0F1804FC9
:1012040027D0A2F57C42904223D002F5806290421E
:101214001FD002F5806290421BD002F578429042C2
:1012240017D002F57052904213D002F580629042BA
:101234000FD002F5806290420BD0A2F59832904212
:1012440007D002F58062904203D002F5806290429A
:1012540003D123F44073CA68134303608B68C362E9
:101264000B688362054B984203D003F58063984270
:1012740001D10B69036301234361704700000140FE
:10128400A8B110B5044690F839305BB1022384F854
:101294003930211D2068FFF793FF012384F839308A
:1012A400002010BD80F8383000F0CEF9EEE70120C0
:1012B4007047000070B4046A24F001040462846975
:1012C400056A1A4EB0421FD0B0F1804F1CD0A6F56B
:1012D4007C46B04218D006F58066B04214D006F5BC
:1012E4008066B04210D006F57846B0420CD006F5C0
:1012F4007056B04208D0A6F59436B04204D024F01B
:10130400030242F0010202E024F00304224322F02B
:10131400F0021B01DBB2134325F00A0201F00A01BB
:1013240011438361016270BC704700BF000001403B
:1013340038B590F83830012B58D00D4604460123B7
:1013440080F83830022380F83930DAB1042A2AD000
:10135400082A3AD0CB684A6809680068FFF753FE48
:101364002268D36923F44063D3612268D369A968EE
:1013740043EA0123D361012384F83930002084F83F
:10138400380038BDCB684A6809680068FFF792FFE7
:101394002268936923F00C03936122689369A96816
:1013A4000B439361E7E7CB684A6809680068FFF775
:1013B400F7FD2268936923F440639361226893697B
:1013C400A96843EA01239361D5E7CB684A680968B1
:1013D4000068FFF7FFFD2268D36923F00C03D36193
:1013E4002268D369A9680B43D361C4E70220C8E724
:1013F4007047704708B5FFF7C1F8FFF74AF908BD11
:1014040008B50248FFF71EFE08BD00BF2C000020EF
:1014140000B587B0002100910A4B1A6B42F001021B
:101424001A631B6B03F001030093009B01230293D7
:1014340020230193039101A90348FFF72FF907B073
:101444005DF804FB003802400000024008B50022A9
:101454004FF400111046FFF7FFF908BDFEE7000046
:1014640010B594B0052307934FF4A02308930123E8
:10147400099302230D934FF480030E9354285FD0F5
:1014840032D978286ED0B42858D100220092424B29
:10149400196C41F0805119641B6C03F08053009364
:1014A400009B01923D4B196841F4404119601B684F
:1014B40003F440430193019B394B01211960082334
:1014C4000F934FF4B4731093022311931293139355
:1014D4000F210291039304924FF4A05305934FF408
:1014E40080530693052413E0322827D108230F9351
:1014F4006423109302231193129313930F220292E5
:101504000393002304934FF480530593069301241B
:1015140007A8FFF763FB002839D1214602A8FFF78B
:10152400E9F9002835D1FFF791FA1E4BA3FB0030EF
:101534008009FFF787F80420FFF79AF814B010BD6C
:1015440008230F93A8231093022411941294139444
:101554000F2302930394002304934FF480530593C1
:101564000693D5E708230F93F023109302231193D6
:10157400129313930F2202920393002304934FF4C4
:10158400A05305934FF4805306930324C0E7FFF759
:1015940065FFFFF763FF00BF0038024000700040A2
:1015A40040000E42D34D621000B585B00F484FF095
:1015B4008043036000238360012343604FF0FF33C3
:1015C400C360FFF75DFE68B90022039200920292A5
:1015D4000123019369460548FFF7AAFE20B905B027
:1015E4005DF804FBFFF73AFFFFF738FF2C000020FB
:1015F40008B5FEF7A9FF3220FFF732FFFFF708FF17
:10160400FFF7D2FFFFF722FFFEE7000008B5032033
:10161400FEF7C6FF0B4A536A43F4E02353620022E9
:1016240011466FF00B00FEF7CDFF002211466FF05C
:101634000A00FEF7C7FF002211466FF00900FEF70B
:10164400C1FF08BD00ED00E010B588B0002401948E
:10165400134B1A6C42F001021A641A6C02F0010274
:101664000192019A02941A6B42F001021A631B6BF5
:1016740003F001030293029B0123039302220492C9
:10168400079303A90748FFF709F822460F211C20F6
:10169400FEF798FF1C20FEF7C9FF08B010BD00BF7D
:1016A40000380240000002400F49D1F8883043F46A
:1016B4007003C1F888300D4B1A6842F001021A60B9
:1016C400002098601A6822F0847222F480321A6032
:1016D400074A5A601A6822F480221A60D8604FF0D0
:1016E40000638B60704700BF00ED00E000380240EB
:1016F40010300024DFF834D0002103E00C4B5B5899
:10170400435004310B480C4B42189A42F6D30B4A0F
:1017140002E0002342F8043B094B9A42F9D3FFF755
:10172400C3FF00F011F8FFF763FF704700000220C9
:10173400D4170008000000200C0000200C0000203A
:1017440068000020FEE7000070B50D4E0D4CA41B90
:10175400A4100025A54209D10B4E0C4C00F018F83A
:10176400A41BA4100025A54205D170BD56F8253050
:1017740098470135EEE756F8253098470135F2E7EA
:10178400CC170008CC170008CC170008D0170008A5
:10179400F8B500BFF8BC08BC9E467047F8B500BF5A
:0817A400F8BC08BC9E4670472A
:1017AC000000000000000000010203040607080905
:0817BC0000000000010203041B
:0817C40070EAFF7F0100000044
:0417CC00E901000827
:0417D000C501000847
:0C17D40001000000100000000024F400E0
:04000005080016F9E0
:00000001FF
