:020000040800F2
:1000000000000220B50700080508000805080008E0
:1000100005080008050800080508000800000000A1
:1000200000000000000000000000000005080008BB
:100030000508000800000000050800084706000841
:10004000050800080508000805080008050800085C
:10005000050800080508000805080008050800084C
:10006000050800080508000805080008050800083C
:10007000050800080508000805080008050800082C
:10008000050800080508000805080008050800081C
:10009000050800080508000805080008050800080C
:1000A00005080008050800080508000805080008FC
:1000B00005080008050800080508000805080008EC
:1000C00005080008050800080508000805080008DC
:1000D00005080008050800080508000805080008CC
:1000E00005080008050800080508000805080008BC
:1000F00005080008050800080508000805080008AC
:10010000050800080508000805080008050800089B
:10011000050800080508000805080008050800088B
:10012000050800080508000805080008050800087B
:100130000508000800000000000000000508000895
:10014000050800080508000805080008050800085B
:10015000050800080508000805080008050800084B
:10016000050800080508000805080008050800083B
:100170000508000805080008050800080000000040
:10018000000000000508000800000000000000005A
:100190000508000800000000000000000508000835
:1001A000000000000000000000000000050800083A
:1001B00005080008050800080508000805080008EB
:0401C0000508000826
:1001C40010B5054C237833B9044B13B10448AFF38D
:1001D40000800123237010BD0C00002000000000EB
:1001E4005008000808B5034B1BB103490348AFF39B
:1001F400008008BD00000000100000205008000826
:1002040010B504460E4B18784FF47A73B3FBF0F331
:100214000C4A1068B0FBF3F000F08EF868B90F2CAC
:1002240001D901200AE0002221464FF0FF3000F0FE
:1002340043F8034B5C60002000E0012010BD00BFC8
:10024400000000200800002008B50B4B1A6842F497
:1002540000721A601A6842F480621A601A6842F4E2
:1002640080721A60032000F015F80020FFF7C8FF21
:1002740000F040FA002008BD003C0240034A116827
:10028400034B1B780B441360704700BF2800002009
:1002940000000020074AD36823F4E0631B041B0C0E
:1002A400000200F4E060184340F0BF6040F4003006
:1002B400D060704700ED00E030B4174BDB68C3F347
:1002C4000223C3F10704042C28BF04241D1D062D9A
:1002D40018D9033B4FF0FF3505FA04F421EA040171
:1002E400994005FA03F322EA0303194300280BDBC0
:1002F4000901C9B200F1604000F5614080F80013C3
:1003040030BC70470023E5E700F00F000901C9B2D3
:10031400024B1954F4E700BF00ED00E014ED00E0D7
:1003240000F01F02400901239340024A42F82030A2
:10033400704700BF00E100E00138B0F1807F0AD2CD
:10034400064B5860064AF02182F82310002098607A
:1003540007221A6070470120704700BF10E000E0D8
:1003640000ED00E0704708B5FFF7FCFF08BD000092
:1003740000230F2B00F2D180F0B482B039E00622C2
:1003840000E00022B2403A430234644E46F824208E
:10039400634A1468EA4302EA04064F6817F4803F8C
:1003A40001D045EA04065E4C2660646802EA04064D
:1003B4004F6817F4003F01D045EA0406584C6660C4
:1003C400A46802EA04064F6817F4801F01D045EAC6
:1003D4000406534CA660E46822404E6816F4001FDD
:1003E40001D045EA04024E4CE26001330F2B00F2C7
:1003F400918001229A400C6804EA0205AA42F4D1D1
:100404004C68022C01D0122C10D1DE08083650F8AA
:1004140026C003F00704A7000F24BC402CEA040CF8
:100424000C69BC4044EA0C0440F8264004685F00B0
:100434000326BE40F64306EA040C4C6804F00304A9
:10044400BC4044EA0C0404604C6804F1FF3CBCF179
:10045400010F03D9112C01D0122C10D1846806EAA3
:10046400040CCC68BC4044EA0C048460446824EA6C
:1004740002024C68C4F300149C4014434460C268F4
:1004840016408A68BA403243C2604A6812F0805FFC
:10049400ABD000220192234A546C44F48044546447
:1004A400526C02F480420192019A9C08A61C1B4AD9
:1004B40052F8267003F0030296000F22B24027EA96
:1004C4000207194A90423FF45CAF02F58062904201
:1004D40016D002F58062904214D002F580629042F8
:1004E40012D002F58062904210D002F580629042F0
:1004F4000ED002F5806290423FF441AF072241E7FB
:1005040001223FE702223DE703223BE7042239E7C9
:10051400052237E702B0F0BC70477047003801404D
:10052400003C014000380240000002404369594049
:1005340041617047022380F839300268136843F040
:1005440001031360012380F8393000207047000054
:1005540003682E4A904212D0B0F1804F0FD0A2F51A
:100564007C4290420BD002F58062904207D002F5A3
:100574008062904203D002F57842904203D123F086
:1005840070034A681343214A90422AD0B0F1804F45
:1005940027D0A2F57C42904223D002F5806290429B
:1005A4001FD002F5806290421BD002F5784290423F
:1005B40017D002F57052904213D002F58062904237
:1005C4000FD002F5806290420BD0A2F5983290428F
:1005D40007D002F58062904203D002F58062904217
:1005E40003D123F44073CA68134303608B68C36266
:1005F4000B688362054B984203D003F580639842ED
:1006040001D10B690363012343617047000001407A
:10061400A8B110B5044690F839305BB1022384F8D0
:100624003930211D2068FFF793FF012384F8393006
:10063400002010BD80F8383000F07AF8EEE7012091
:10064400704708B5FFF71AFEFFF78DFE08BD0000DE
:1006540000B587B0002100910A4B1A6B42F00102E9
:100664001A631B6B03F001030093009B01230293A5
:1006740020230193039101A90348FFF779FE07B0F2
:100684005DF804FB0038024000000240FEE7000071
:1006940008B50748074B0360182343604FF6FF1360
:1006A400C360FFF7B5FF00B908BDFFF7EFFF00BF58
:1006B4002C0000200010004008B5FFF7C5FDFFF72F
:1006C400C7FFFFF7E5FF0848FFF734FF074B1B6937
:1006D40013F0010FFAD0054B00221A6120210448BF
:1006E400FFF724FFF2E700BF2C00002000100040B9
:1006F4000000024008B50320FFF7CCFD0B4A536A03
:1007040043F4E0235362002211466FF00B00FFF71D
:10071400D3FD002211466FF00A00FFF7CDFD002241
:1007240011466FF00900FFF7C7FD08BD00ED00E0BA
:1007340010B582B000240194094B1A6C42F01002E7
:100744001A641B6C03F010030193019B3620FFF71E
:10075400E7FD22460F213620FFF7AEFD02B010BDA3
:10076400003802400F49D1F8883043F47003C1F8CF
:1007740088300D4B1A6842F001021A60002098601C
:100784001A6822F0847222F480321A60074A5A608E
:100794001A6822F480221A60D8604FF000638B60DC
:1007A400704700BF00ED00E0003802401030002424
:1007B400DFF834D0002103E00C4B5B584350043184
:1007C4000B480C4B42189A42F6D30B4A02E0002322
:1007D40042F8043B094B9A42F9D3FFF7C3FF00F0F8
:1007E40011F8FFF769FF7047000002207008000845
:1007F400000000200C0000200C00002068000020F5
:10080400FEE7000070B50D4E0D4CA41BA41000258E
:10081400A54209D10B4E0C4C00F018F8A41BA410EF
:100824000025A54205D170BD56F8253098470135FD
:10083400EEE756F8253098470135F2E768080008D6
:1008440068080008680800086C080008F8B500BFCC
:10085400F8BC08BC9E467047F8B500BFF8BC08BC9D
:040864009E467047F5
:04086800E90100089A
:04086C00C5010008BA
:0C08700001000000100000000024F40053
:04000005080007B533
:00000001FF
